{
  "contractName": "checkReward",
  "abi": [
    {
      "inputs": [],
      "stateMutability": "nonpayable",
      "type": "constructor"
    },
    {
      "anonymous": false,
      "inputs": [
        {
          "indexed": true,
          "internalType": "address",
          "name": "player",
          "type": "address"
        },
        {
          "indexed": true,
          "internalType": "uint256",
          "name": "amount",
          "type": "uint256"
        },
        {
          "indexed": false,
          "internalType": "uint256",
          "name": "multi",
          "type": "uint256"
        }
      ],
      "name": "Scoredeclare",
      "type": "event"
    },
    {
      "anonymous": false,
      "inputs": [
        {
          "indexed": true,
          "internalType": "address",
          "name": "player",
          "type": "address"
        },
        {
          "indexed": true,
          "internalType": "uint256",
          "name": "token",
          "type": "uint256"
        }
      ],
      "name": "tokenTransferred",
      "type": "event"
    },
    {
      "inputs": [],
      "name": "playerIndex",
      "outputs": [
        {
          "internalType": "uint256",
          "name": "",
          "type": "uint256"
        }
      ],
      "stateMutability": "view",
      "type": "function"
    },
    {
      "inputs": [
        {
          "internalType": "uint256",
          "name": "",
          "type": "uint256"
        }
      ],
      "name": "players",
      "outputs": [
        {
          "internalType": "address",
          "name": "",
          "type": "address"
        }
      ],
      "stateMutability": "view",
      "type": "function"
    },
    {
      "inputs": [],
      "name": "purseToken",
      "outputs": [
        {
          "internalType": "contract PurseTokenUpgradable",
          "name": "",
          "type": "address"
        }
      ],
      "stateMutability": "view",
      "type": "function"
    },
    {
      "inputs": [
        {
          "internalType": "address",
          "name": "",
          "type": "address"
        }
      ],
      "name": "score",
      "outputs": [
        {
          "internalType": "address",
          "name": "plaYer",
          "type": "address"
        },
        {
          "internalType": "uint256",
          "name": "scOre",
          "type": "uint256"
        },
        {
          "internalType": "uint256",
          "name": "mulTi",
          "type": "uint256"
        }
      ],
      "stateMutability": "view",
      "type": "function"
    },
    {
      "inputs": [
        {
          "internalType": "uint256",
          "name": "token",
          "type": "uint256"
        }
      ],
      "name": "startGame",
      "outputs": [],
      "stateMutability": "nonpayable",
      "type": "function"
    },
    {
      "inputs": [
        {
          "internalType": "uint256",
          "name": "amount",
          "type": "uint256"
        }
      ],
      "name": "completeGame",
      "outputs": [],
      "stateMutability": "nonpayable",
      "type": "function"
    }
  ],
  "bytecode": "0x608060405234801561001057600080fd5b50600080546001600160a01b0319163317905561079b806100326000396000f3fe608060405234801561001057600080fd5b50600436106100625760003560e01c80633ac3f5241461006757806351bf16ef14610083578063776f3843146100ae578063bf51d8c81461010c578063e5ed1d5914610121578063f71d96cb14610134575b600080fd5b61007060025481565b6040519081526020015b60405180910390f35b600354610096906001600160a01b031681565b6040516001600160a01b03909116815260200161007a565b6100e76100bc36600461069b565b6004602052600090815260409020805460018201546002909201546001600160a01b03909116919083565b604080516001600160a01b03909416845260208401929092529082015260600161007a565b61011f61011a3660046106e9565b610147565b005b61011f61012f3660046106e9565b610156565b6100966101423660046106e9565b6101de565b806101523382610208565b5050565b60035460005460405163a9059cbb60e01b81526001600160a01b0391821660048201526024810184905291169063a9059cbb90604401602060405180830381600087803b1580156101a657600080fd5b505af11580156101ba573d6000803e3d6000fd5b505050506040513d601f19601f8201168201806040525081019061015291906106c9565b600181815481106101ee57600080fd5b6000918252602090912001546001600160a01b0316905081565b80600a14156102f2576001805480820182556000805160206107268339815191520180546001600160a01b0385166001600160a01b0319918216811790925560008281526004602052604081208054909216909217905560028054909190610271908490610701565b90915550506001600160a01b038216600090815260046020526040812060010180548392906102a1908490610701565b90915550506001600160a01b0382166000818152600460205260409081902060029081018190559051839291600080516020610746833981519152916102e991815260200190565b60405180910390a35b80600914156103de576001805480820182556000805160206107268339815191520180546001600160a01b0385166001600160a01b031991821681179092556000828152600460205260408120805490921690921790556002805490919061035b908490610701565b90915550506001600160a01b0382166000908152600460205260408120600101805483929061038b908490610701565b90915550506001600160a01b03821660008181526004602052604090819020600360029091018190559051839291600080516020610746833981519152916103d591815260200190565b60405180910390a35b80600814156104c0576001805480820182556000805160206107268339815191520180546001600160a01b0385166001600160a01b0319918216811790925560008281526004602052604081208054909216909217905560028054909190610447908490610701565b90915550506001600160a01b03821660009081526004602052604081206001018054839290610477908490610701565b90915550506001600160a01b0382166000818152600460208181526040928390206002018290559151908152839291600080516020610746833981519152910160405180910390a35b80600714156105ac576001805480820182556000805160206107268339815191520180546001600160a01b0385166001600160a01b0319918216811790925560008281526004602052604081208054909216909217905560028054909190610529908490610701565b90915550506001600160a01b03821660009081526004602052604081206001018054839290610559908490610701565b90915550506001600160a01b03821660008181526004602052604090819020600560029091018190559051839291600080516020610746833981519152916105a391815260200190565b60405180910390a35b8060061415610152576001805480820182556000805160206107268339815191520180546001600160a01b0385166001600160a01b0319918216811790925560008281526004602052604081208054909216909217905560028054909190610615908490610701565b90915550506001600160a01b03821660009081526004602052604081206001018054839290610645908490610701565b90915550506001600160a01b038216600081815260046020526040908190206006600290910181905590518392916000805160206107468339815191529161068f91815260200190565b60405180910390a35050565b6000602082840312156106ac578081fd5b81356001600160a01b03811681146106c2578182fd5b9392505050565b6000602082840312156106da578081fd5b815180151581146106c2578182fd5b6000602082840312156106fa578081fd5b5035919050565b6000821982111561072057634e487b7160e01b81526011600452602481fd5b50019056feb10e2d527612073b26eecdfd717e6a320cf44b4afac2b0732d9fcbe2b7fa0cf6f6c18f16ac06d44b899c9f5bf43ca9ed957e2975bfdf2277e8e2d66866eec779a2646970667358221220570e175e269ccda1ca5fde594dce0ffab099d84171a4ff6f68334ff0dadb671a64736f6c63430008020033",
  "immutableReferences": {},
  "source": "pragma solidity ^0.8.0; \r\n\r\nimport \"./PurseTokenUpgradable.sol\";\r\n\r\ncontract checkReward {\r\n    address _owner;\r\n\r\n    address[] public players;\r\n    uint256 public playerIndex;\r\n\r\n    PurseTokenUpgradable public purseToken;\r\n\r\n    event Scoredeclare(address indexed player, uint256 indexed amount, uint256 multi);\r\n    // event updateReward(uint256 indexed multi);\r\n    event tokenTransferred(address indexed player, uint256 indexed token);\r\n    // uint256 move;\r\n\r\n    mapping(address=> playerInfo) public score;\r\n\r\n    struct playerInfo {\r\n        address plaYer;\r\n        uint256 scOre;\r\n        uint256 mulTi;\r\n    }\r\n\r\n    // modifier onlyOwner() override {\r\n    //     require(msg.sender == _owner);\r\n    //     _;\r\n    // }\r\n\r\n    constructor() {\r\n        _owner = msg.sender;\r\n    }\r\n\r\n    function startGame(uint256 token) public {\r\n        // require(token>=1000);\r\n        purseToken.transfer(_owner, token);\r\n     }\r\n\r\n    function completeGame(uint256 amount) public {\r\n        uint x = amount;\r\n        checkScore(msg.sender, x);\r\n    }\r\n\r\n    function checkScore(address player, uint256 amount) internal {\r\n        \r\n        if(amount == 10) {\r\n            players.push(player);\r\n            score[player].plaYer = player;\r\n            playerIndex +=1;\r\n            score[player].scOre += amount;\r\n                        \r\n            score[player].mulTi = 2;\r\n            \r\n            // getPurse(player, multi);\r\n            emit Scoredeclare(player, amount, 2);\r\n            // emit updateReward(multi);             \r\n        }\r\n\r\n        if(amount == 9) {\r\n            players.push(player);\r\n            score[player].plaYer = player;\r\n            playerIndex +=1;\r\n            score[player].scOre += amount;\r\n                        \r\n            score[player].mulTi = 3;\r\n            \r\n            // getPurse(player, multi);\r\n            emit Scoredeclare(player, amount, 3);\r\n            // emit updateReward(multi);             \r\n        }\r\n\r\n        if(amount == 8) {\r\n            players.push(player);\r\n            score[player].plaYer = player;\r\n            playerIndex +=1;\r\n            score[player].scOre += amount;\r\n                        \r\n            score[player].mulTi = 4;\r\n            \r\n            // getPurse(player, multi);\r\n            emit Scoredeclare(player, amount, 4);\r\n            // emit updateReward(multi);             \r\n        }\r\n\r\n        if(amount == 7) {\r\n            players.push(player);\r\n            score[player].plaYer = player;\r\n            playerIndex +=1;\r\n            score[player].scOre += amount;\r\n                        \r\n            score[player].mulTi = 5;\r\n            \r\n            // getPurse(player, multi);\r\n            emit Scoredeclare(player, amount, 5);\r\n            // emit updateReward(multi);             \r\n        }\r\n\r\n        if(amount == 6) {\r\n            players.push(player);\r\n            score[player].plaYer = player;\r\n            playerIndex +=1;\r\n            score[player].scOre += amount;\r\n                        \r\n            score[player].mulTi = 6;\r\n            \r\n            // getPurse(player, multi);\r\n            emit Scoredeclare(player, amount, 6);\r\n            // emit updateReward(multi);             \r\n        }\r\n                \r\n    }\r\n\r\n    \r\n\r\n    // function getPurse(address _to, uint256 multi) public onlyOwner {\r\n    //     require(_to != address(0), \"send to blackhole\"   );\r\n    //     _to = msg.sender; \r\n    //     uint256 purseTokenbet = 1000;\r\n    //     uint256 rewardPurse = purseTokenbet* multi ;\r\n        \r\n    //     emit updateReward(rewardPurse); \r\n    //     // eth.transfer(_to, rewardPurse);\r\n    // }\r\n\r\n}",
  "sourcePath": "C:\\Users\\WorkKing\\PXdev\\december\\Dapp\\CoinMatch\\MatchingGame\\src\\contracts\\checkReward.sol",
  "compiler": {
    "name": "solc",
    "version": "0.8.2+commit.661d1103.Emscripten.clang"
  },
  "schemaVersion": "3.4.3",
  "updatedAt": "2022-01-22T13:55:38.534Z",
  "devdoc": {
    "kind": "dev",
    "methods": {},
    "version": 1
  },
  "userdoc": {
    "kind": "user",
    "methods": {},
    "version": 1
  }
}