{
  "contractName": "MemoryToken",
  "abi": [
    {
      "inputs": [],
      "stateMutability": "nonpayable",
      "type": "constructor"
    },
    {
      "anonymous": false,
      "inputs": [
        {
          "indexed": true,
          "internalType": "address",
          "name": "owner",
          "type": "address"
        },
        {
          "indexed": true,
          "internalType": "address",
          "name": "approved",
          "type": "address"
        },
        {
          "indexed": true,
          "internalType": "uint256",
          "name": "tokenId",
          "type": "uint256"
        }
      ],
      "name": "Approval",
      "type": "event"
    },
    {
      "anonymous": false,
      "inputs": [
        {
          "indexed": true,
          "internalType": "address",
          "name": "owner",
          "type": "address"
        },
        {
          "indexed": true,
          "internalType": "address",
          "name": "operator",
          "type": "address"
        },
        {
          "indexed": false,
          "internalType": "bool",
          "name": "approved",
          "type": "bool"
        }
      ],
      "name": "ApprovalForAll",
      "type": "event"
    },
    {
      "anonymous": false,
      "inputs": [
        {
          "indexed": false,
          "internalType": "address",
          "name": "account",
          "type": "address"
        }
      ],
      "name": "Paused",
      "type": "event"
    },
    {
      "anonymous": false,
      "inputs": [
        {
          "indexed": true,
          "internalType": "bytes32",
          "name": "role",
          "type": "bytes32"
        },
        {
          "indexed": true,
          "internalType": "bytes32",
          "name": "previousAdminRole",
          "type": "bytes32"
        },
        {
          "indexed": true,
          "internalType": "bytes32",
          "name": "newAdminRole",
          "type": "bytes32"
        }
      ],
      "name": "RoleAdminChanged",
      "type": "event"
    },
    {
      "anonymous": false,
      "inputs": [
        {
          "indexed": true,
          "internalType": "bytes32",
          "name": "role",
          "type": "bytes32"
        },
        {
          "indexed": true,
          "internalType": "address",
          "name": "account",
          "type": "address"
        },
        {
          "indexed": true,
          "internalType": "address",
          "name": "sender",
          "type": "address"
        }
      ],
      "name": "RoleGranted",
      "type": "event"
    },
    {
      "anonymous": false,
      "inputs": [
        {
          "indexed": true,
          "internalType": "bytes32",
          "name": "role",
          "type": "bytes32"
        },
        {
          "indexed": true,
          "internalType": "address",
          "name": "account",
          "type": "address"
        },
        {
          "indexed": true,
          "internalType": "address",
          "name": "sender",
          "type": "address"
        }
      ],
      "name": "RoleRevoked",
      "type": "event"
    },
    {
      "anonymous": false,
      "inputs": [
        {
          "indexed": true,
          "internalType": "address",
          "name": "from",
          "type": "address"
        },
        {
          "indexed": true,
          "internalType": "address",
          "name": "to",
          "type": "address"
        },
        {
          "indexed": true,
          "internalType": "uint256",
          "name": "tokenId",
          "type": "uint256"
        }
      ],
      "name": "Transfer",
      "type": "event"
    },
    {
      "anonymous": false,
      "inputs": [
        {
          "indexed": false,
          "internalType": "address",
          "name": "account",
          "type": "address"
        }
      ],
      "name": "Unpaused",
      "type": "event"
    },
    {
      "inputs": [],
      "name": "DEFAULT_ADMIN_ROLE",
      "outputs": [
        {
          "internalType": "bytes32",
          "name": "",
          "type": "bytes32"
        }
      ],
      "stateMutability": "view",
      "type": "function"
    },
    {
      "inputs": [],
      "name": "MINTER_ROLE",
      "outputs": [
        {
          "internalType": "bytes32",
          "name": "",
          "type": "bytes32"
        }
      ],
      "stateMutability": "view",
      "type": "function"
    },
    {
      "inputs": [],
      "name": "PAUSER_ROLE",
      "outputs": [
        {
          "internalType": "bytes32",
          "name": "",
          "type": "bytes32"
        }
      ],
      "stateMutability": "view",
      "type": "function"
    },
    {
      "inputs": [
        {
          "internalType": "address",
          "name": "to",
          "type": "address"
        },
        {
          "internalType": "uint256",
          "name": "tokenId",
          "type": "uint256"
        }
      ],
      "name": "approve",
      "outputs": [],
      "stateMutability": "nonpayable",
      "type": "function"
    },
    {
      "inputs": [
        {
          "internalType": "address",
          "name": "owner",
          "type": "address"
        }
      ],
      "name": "balanceOf",
      "outputs": [
        {
          "internalType": "uint256",
          "name": "",
          "type": "uint256"
        }
      ],
      "stateMutability": "view",
      "type": "function"
    },
    {
      "inputs": [
        {
          "internalType": "uint256",
          "name": "tokenId",
          "type": "uint256"
        }
      ],
      "name": "burn",
      "outputs": [],
      "stateMutability": "nonpayable",
      "type": "function"
    },
    {
      "inputs": [
        {
          "internalType": "uint256",
          "name": "tokenId",
          "type": "uint256"
        }
      ],
      "name": "getApproved",
      "outputs": [
        {
          "internalType": "address",
          "name": "",
          "type": "address"
        }
      ],
      "stateMutability": "view",
      "type": "function"
    },
    {
      "inputs": [
        {
          "internalType": "bytes32",
          "name": "role",
          "type": "bytes32"
        }
      ],
      "name": "getRoleAdmin",
      "outputs": [
        {
          "internalType": "bytes32",
          "name": "",
          "type": "bytes32"
        }
      ],
      "stateMutability": "view",
      "type": "function"
    },
    {
      "inputs": [
        {
          "internalType": "bytes32",
          "name": "role",
          "type": "bytes32"
        },
        {
          "internalType": "uint256",
          "name": "index",
          "type": "uint256"
        }
      ],
      "name": "getRoleMember",
      "outputs": [
        {
          "internalType": "address",
          "name": "",
          "type": "address"
        }
      ],
      "stateMutability": "view",
      "type": "function"
    },
    {
      "inputs": [
        {
          "internalType": "bytes32",
          "name": "role",
          "type": "bytes32"
        }
      ],
      "name": "getRoleMemberCount",
      "outputs": [
        {
          "internalType": "uint256",
          "name": "",
          "type": "uint256"
        }
      ],
      "stateMutability": "view",
      "type": "function"
    },
    {
      "inputs": [
        {
          "internalType": "bytes32",
          "name": "role",
          "type": "bytes32"
        },
        {
          "internalType": "address",
          "name": "account",
          "type": "address"
        }
      ],
      "name": "grantRole",
      "outputs": [],
      "stateMutability": "nonpayable",
      "type": "function"
    },
    {
      "inputs": [
        {
          "internalType": "bytes32",
          "name": "role",
          "type": "bytes32"
        },
        {
          "internalType": "address",
          "name": "account",
          "type": "address"
        }
      ],
      "name": "hasRole",
      "outputs": [
        {
          "internalType": "bool",
          "name": "",
          "type": "bool"
        }
      ],
      "stateMutability": "view",
      "type": "function"
    },
    {
      "inputs": [
        {
          "internalType": "address",
          "name": "owner",
          "type": "address"
        },
        {
          "internalType": "address",
          "name": "operator",
          "type": "address"
        }
      ],
      "name": "isApprovedForAll",
      "outputs": [
        {
          "internalType": "bool",
          "name": "",
          "type": "bool"
        }
      ],
      "stateMutability": "view",
      "type": "function"
    },
    {
      "inputs": [],
      "name": "name",
      "outputs": [
        {
          "internalType": "string",
          "name": "",
          "type": "string"
        }
      ],
      "stateMutability": "view",
      "type": "function"
    },
    {
      "inputs": [
        {
          "internalType": "uint256",
          "name": "tokenId",
          "type": "uint256"
        }
      ],
      "name": "ownerOf",
      "outputs": [
        {
          "internalType": "address",
          "name": "",
          "type": "address"
        }
      ],
      "stateMutability": "view",
      "type": "function"
    },
    {
      "inputs": [],
      "name": "pause",
      "outputs": [],
      "stateMutability": "nonpayable",
      "type": "function"
    },
    {
      "inputs": [],
      "name": "paused",
      "outputs": [
        {
          "internalType": "bool",
          "name": "",
          "type": "bool"
        }
      ],
      "stateMutability": "view",
      "type": "function"
    },
    {
      "inputs": [
        {
          "internalType": "bytes32",
          "name": "role",
          "type": "bytes32"
        },
        {
          "internalType": "address",
          "name": "account",
          "type": "address"
        }
      ],
      "name": "renounceRole",
      "outputs": [],
      "stateMutability": "nonpayable",
      "type": "function"
    },
    {
      "inputs": [
        {
          "internalType": "bytes32",
          "name": "role",
          "type": "bytes32"
        },
        {
          "internalType": "address",
          "name": "account",
          "type": "address"
        }
      ],
      "name": "revokeRole",
      "outputs": [],
      "stateMutability": "nonpayable",
      "type": "function"
    },
    {
      "inputs": [
        {
          "internalType": "address",
          "name": "from",
          "type": "address"
        },
        {
          "internalType": "address",
          "name": "to",
          "type": "address"
        },
        {
          "internalType": "uint256",
          "name": "tokenId",
          "type": "uint256"
        }
      ],
      "name": "safeTransferFrom",
      "outputs": [],
      "stateMutability": "nonpayable",
      "type": "function"
    },
    {
      "inputs": [
        {
          "internalType": "address",
          "name": "from",
          "type": "address"
        },
        {
          "internalType": "address",
          "name": "to",
          "type": "address"
        },
        {
          "internalType": "uint256",
          "name": "tokenId",
          "type": "uint256"
        },
        {
          "internalType": "bytes",
          "name": "_data",
          "type": "bytes"
        }
      ],
      "name": "safeTransferFrom",
      "outputs": [],
      "stateMutability": "nonpayable",
      "type": "function"
    },
    {
      "inputs": [
        {
          "internalType": "address",
          "name": "operator",
          "type": "address"
        },
        {
          "internalType": "bool",
          "name": "approved",
          "type": "bool"
        }
      ],
      "name": "setApprovalForAll",
      "outputs": [],
      "stateMutability": "nonpayable",
      "type": "function"
    },
    {
      "inputs": [
        {
          "internalType": "bytes4",
          "name": "interfaceId",
          "type": "bytes4"
        }
      ],
      "name": "supportsInterface",
      "outputs": [
        {
          "internalType": "bool",
          "name": "",
          "type": "bool"
        }
      ],
      "stateMutability": "view",
      "type": "function"
    },
    {
      "inputs": [],
      "name": "symbol",
      "outputs": [
        {
          "internalType": "string",
          "name": "",
          "type": "string"
        }
      ],
      "stateMutability": "view",
      "type": "function"
    },
    {
      "inputs": [
        {
          "internalType": "uint256",
          "name": "index",
          "type": "uint256"
        }
      ],
      "name": "tokenByIndex",
      "outputs": [
        {
          "internalType": "uint256",
          "name": "",
          "type": "uint256"
        }
      ],
      "stateMutability": "view",
      "type": "function"
    },
    {
      "inputs": [
        {
          "internalType": "address",
          "name": "owner",
          "type": "address"
        },
        {
          "internalType": "uint256",
          "name": "index",
          "type": "uint256"
        }
      ],
      "name": "tokenOfOwnerByIndex",
      "outputs": [
        {
          "internalType": "uint256",
          "name": "",
          "type": "uint256"
        }
      ],
      "stateMutability": "view",
      "type": "function"
    },
    {
      "inputs": [],
      "name": "totalSupply",
      "outputs": [
        {
          "internalType": "uint256",
          "name": "",
          "type": "uint256"
        }
      ],
      "stateMutability": "view",
      "type": "function"
    },
    {
      "inputs": [
        {
          "internalType": "address",
          "name": "from",
          "type": "address"
        },
        {
          "internalType": "address",
          "name": "to",
          "type": "address"
        },
        {
          "internalType": "uint256",
          "name": "tokenId",
          "type": "uint256"
        }
      ],
      "name": "transferFrom",
      "outputs": [],
      "stateMutability": "nonpayable",
      "type": "function"
    },
    {
      "inputs": [],
      "name": "unpause",
      "outputs": [],
      "stateMutability": "nonpayable",
      "type": "function"
    },
    {
      "inputs": [
        {
          "internalType": "uint256",
          "name": "tokenId",
          "type": "uint256"
        }
      ],
      "name": "tokenURI",
      "outputs": [
        {
          "internalType": "string",
          "name": "",
          "type": "string"
        }
      ],
      "stateMutability": "view",
      "type": "function"
    },
    {
      "inputs": [
        {
          "internalType": "address",
          "name": "to",
          "type": "address"
        }
      ],
      "name": "mint",
      "outputs": [],
      "stateMutability": "nonpayable",
      "type": "function"
    },
    {
      "inputs": [
        {
          "internalType": "address",
          "name": "_to",
          "type": "address"
        },
        {
          "internalType": "string",
          "name": "_tokenURI",
          "type": "string"
        }
      ],
      "name": "mint",
      "outputs": [
        {
          "internalType": "bool",
          "name": "",
          "type": "bool"
        }
      ],
      "stateMutability": "nonpayable",
      "type": "function"
    }
  ],
  "bytecode": "0x60806040523480156200001157600080fd5b506040518060400160405280600b81526020017f4d656d6f7279546f6b656e0000000000000000000000000000000000000000008152506040518060400160405280600381526020017f4d454d00000000000000000000000000000000000000000000000000000000008152506040518060400160405280601b81526020017f68747470733a2f2f676f6f676c652e636f6d2f6d65746164617461000000000081525082828160029080519060200190620000ce92919062000315565b508051620000e490600390602084019062000315565b5050600c805460ff191690555080516200010690600e90602084019062000315565b506200011d60006200011762000184565b62000188565b6200014c7f9f2df0fed2c77648de5860a4cc508cd0818c85b8b8a1ab4ceeef8d981c8956a66200011762000184565b6200017b7f65d7a28e3265b37a6474929f336521b332c1681b933f6cb9f3376673440d862a6200011762000184565b50505062000411565b3390565b62000194828262000198565b5050565b620001af8282620001db60201b62000ab41760201c565b6000828152600160209081526040909120620001d691839062000b3962000265821b17901c565b505050565b620001e7828262000285565b62000194576000828152602081815260408083206001600160a01b03851684529091529020805460ff191660011790556200022162000184565b6001600160a01b0316816001600160a01b0316837f2f8788117e7eff1d82e926ec794901d17c78024a50270940304540a733656f0d60405160405180910390a45050565b60006200027c836001600160a01b038416620002ae565b90505b92915050565b6000918252602082815260408084206001600160a01b0393909316845291905290205460ff1690565b6000620002bc8383620002fd565b620002f4575081546001818101845560008481526020808220909301849055845484825282860190935260409020919091556200027f565b5060006200027f565b60009081526001919091016020526040902054151590565b8280546200032390620003bb565b90600052602060002090601f01602090048101928262000347576000855562000392565b82601f106200036257805160ff191683800117855562000392565b8280016001018555821562000392579182015b828111156200039257825182559160200191906001019062000375565b50620003a0929150620003a4565b5090565b5b80821115620003a05760008155600101620003a5565b600281046001821680620003d057607f821691505b602082108114156200040b577f4e487b7100000000000000000000000000000000000000000000000000000000600052602260045260246000fd5b50919050565b6128df80620004216000396000f3fe608060405234801561001057600080fd5b50600436106101f05760003560e01c80636a6278421161010f578063b88d4fde116100a2578063d539139311610071578063d5391393146103fb578063d547741f14610403578063e63ab1e914610416578063e985e9c51461041e576101f0565b8063b88d4fde146103af578063c87b56dd146103c2578063ca15c873146103d5578063d0def521146103e8576101f0565b806391d14854116100de57806391d148541461037957806395d89b411461038c578063a217fddf14610394578063a22cb4651461039c576101f0565b80636a6278421461033857806370a082311461034b5780638456cb591461035e5780639010d07c14610366576101f0565b80632f745c591161018757806342966c681161015657806342966c68146102f75780634f6ccce71461030a5780635c975abb1461031d5780636352211e14610325576101f0565b80632f745c59146102b657806336568abe146102c95780633f4ba83a146102dc57806342842e0e146102e4576101f0565b806318160ddd116101c357806318160ddd1461026857806323b872dd1461027d578063248a9ca3146102905780632f2ff15d146102a3576101f0565b806301ffc9a7146101f557806306fdde031461021e578063081812fc14610233578063095ea7b314610253575b600080fd5b610208610203366004611e88565b610431565b604051610215919061200a565b60405180910390f35b610226610444565b604051610215919061201e565b610246610241366004611e2d565b6104d6565b6040516102159190611fb9565b610266610261366004611e04565b610522565b005b6102706105ba565b6040516102159190612015565b61026661028b366004611cb7565b6105c0565b61027061029e366004611e2d565b6105f8565b6102666102b1366004611e45565b61060d565b6102706102c4366004611e04565b610631565b6102666102d7366004611e45565b610686565b6102666106cc565b6102666102f2366004611cb7565b61071e565b610266610305366004611e2d565b610739565b610270610318366004611e2d565b61076c565b6102086107c7565b610246610333366004611e2d565b6107d0565b610266610346366004611c6b565b610805565b610270610359366004611c6b565b61086a565b6102666108ae565b610246610374366004611e67565b6108fe565b610208610387366004611e45565b61091d565b610226610946565b610270610955565b6102666103aa366004611d6b565b61095a565b6102666103bd366004611cf2565b61096c565b6102266103d0366004611e2d565b6109ab565b6102706103e3366004611e2d565b6109dc565b6102086103f6366004611da5565b6109f3565b610270610a1f565b610266610411366004611e45565b610a43565b610270610a62565b61020861042c366004611c85565b610a86565b600061043c82610b4e565b90505b919050565b606060028054610453906127e7565b80601f016020809104026020016040519081016040528092919081815260200182805461047f906127e7565b80156104cc5780601f106104a1576101008083540402835291602001916104cc565b820191906000526020600020905b8154815290600101906020018083116104af57829003601f168201915b5050505050905090565b60006104e182610b73565b6105065760405162461bcd60e51b81526004016104fd90612426565b60405180910390fd5b506000908152600660205260409020546001600160a01b031690565b600061052d826107d0565b9050806001600160a01b0316836001600160a01b031614156105615760405162461bcd60e51b81526004016104fd9061250a565b806001600160a01b0316610573610b90565b6001600160a01b0316148061058f575061058f8161042c610b90565b6105ab5760405162461bcd60e51b81526004016104fd90612301565b6105b58383610b94565b505050565b600a5490565b6105d16105cb610b90565b82610c02565b6105ed5760405162461bcd60e51b81526004016104fd9061254b565b6105b5838383610c87565b60009081526020819052604090206001015490565b610616826105f8565b61062781610622610b90565b610db4565b6105b58383610e18565b600061063c8361086a565b821061065a5760405162461bcd60e51b81526004016104fd906120df565b506001600160a01b03821660009081526008602090815260408083208484529091529020545b92915050565b61068e610b90565b6001600160a01b0316816001600160a01b0316146106be5760405162461bcd60e51b81526004016104fd906126f3565b6106c88282610e3a565b5050565b6106f87f65d7a28e3265b37a6474929f336521b332c1681b933f6cb9f3376673440d862a610387610b90565b6107145760405162461bcd60e51b81526004016104fd90612695565b61071c610e5c565b565b6105b58383836040518060200160405280600081525061096c565b6107446105cb610b90565b6107605760405162461bcd60e51b81526004016104fd90612645565b61076981610eca565b50565b60006107766105ba565b82106107945760405162461bcd60e51b81526004016104fd9061259c565b600a82815481106107b557634e487b7160e01b600052603260045260246000fd5b90600052602060002001549050919050565b600c5460ff1690565b6000818152600460205260408120546001600160a01b03168061043c5760405162461bcd60e51b81526004016104fd906123a8565b6108317f9f2df0fed2c77648de5860a4cc508cd0818c85b8b8a1ab4ceeef8d981c8956a6610387610b90565b61084d5760405162461bcd60e51b81526004016104fd906125e8565b6108608161085b600d610f71565b610f75565b610769600d611054565b60006001600160a01b0382166108925760405162461bcd60e51b81526004016104fd9061235e565b506001600160a01b031660009081526005602052604090205490565b6108da7f65d7a28e3265b37a6474929f336521b332c1681b933f6cb9f3376673440d862a610387610b90565b6108f65760405162461bcd60e51b81526004016104fd906121b3565b61071c61105d565b600082815260016020526040812061091690836110b8565b9392505050565b6000918252602082815260408084206001600160a01b0393909316845291905290205460ff1690565b606060038054610453906127e7565b600081565b6106c8610965610b90565b83836110c4565b61097d610977610b90565b83610c02565b6109995760405162461bcd60e51b81526004016104fd9061254b565b6109a584848484611167565b50505050565b60606109b68261119a565b6040516020016109c69190611f1b565b6040516020818303038152906040529050919050565b600081815260016020526040812061043c9061121c565b600080610a096001610a036105ba565b90611227565b9050610a158482610f75565b5060019392505050565b7f9f2df0fed2c77648de5860a4cc508cd0818c85b8b8a1ab4ceeef8d981c8956a681565b610a4c826105f8565b610a5881610622610b90565b6105b58383610e3a565b7f65d7a28e3265b37a6474929f336521b332c1681b933f6cb9f3376673440d862a81565b6001600160a01b03918216600090815260076020908152604080832093909416825291909152205460ff1690565b610abe828261091d565b6106c8576000828152602081815260408083206001600160a01b03851684529091529020805460ff19166001179055610af5610b90565b6001600160a01b0316816001600160a01b0316837f2f8788117e7eff1d82e926ec794901d17c78024a50270940304540a733656f0d60405160405180910390a45050565b6000610916836001600160a01b038416611233565b60006001600160e01b0319821663780e9d6360e01b148061043c575061043c8261127d565b6000908152600460205260409020546001600160a01b0316151590565b3390565b600081815260066020526040902080546001600160a01b0319166001600160a01b0384169081179091558190610bc9826107d0565b6001600160a01b03167f8c5be1e5ebec7d5bd14f71427d1e84f3dd0314c0f7b2291e5b200ac8c7c3b92560405160405180910390a45050565b6000610c0d82610b73565b610c295760405162461bcd60e51b81526004016104fd9061228b565b6000610c34836107d0565b9050806001600160a01b0316846001600160a01b03161480610c6f5750836001600160a01b0316610c64846104d6565b6001600160a01b0316145b80610c7f5750610c7f8185610a86565b949350505050565b826001600160a01b0316610c9a826107d0565b6001600160a01b031614610cc05760405162461bcd60e51b81526004016104fd90612472565b6001600160a01b038216610ce65760405162461bcd60e51b81526004016104fd90612210565b610cf18383836112bd565b610cfc600082610b94565b6001600160a01b0383166000908152600560205260408120805460019290610d2590849061278d565b90915550506001600160a01b0382166000908152600560205260408120805460019290610d53908490612742565b909155505060008181526004602052604080822080546001600160a01b0319166001600160a01b0386811691821790925591518493918716917fddf252ad1be2c89b69c2b068fc378daa952ba7f163c4a11628f55a4df523b3ef91a4505050565b610dbe828261091d565b6106c857610dd6816001600160a01b031660146112c8565b610de18360206112c8565b604051602001610df2929190611f44565b60408051601f198184030181529082905262461bcd60e51b82526104fd9160040161201e565b610e228282610ab4565b60008281526001602052604090206105b59082610b39565b610e44828261147a565b60008281526001602052604090206105b590826114fd565b610e646107c7565b610e805760405162461bcd60e51b81526004016104fd906120b1565b600c805460ff191690557f5db9ee0a495bf2e6ff9c91a7834c1ba4fdd244a5e8aa4e537bd38aeae4b073aa610eb3610b90565b604051610ec09190611fb9565b60405180910390a1565b6000610ed5826107d0565b9050610ee3816000846112bd565b610eee600083610b94565b6001600160a01b0381166000908152600560205260408120805460019290610f1790849061278d565b909155505060008281526004602052604080822080546001600160a01b0319169055518391906001600160a01b038416907fddf252ad1be2c89b69c2b068fc378daa952ba7f163c4a11628f55a4df523b3ef908390a45050565b5490565b6001600160a01b038216610f9b5760405162461bcd60e51b81526004016104fd906123f1565b610fa481610b73565b15610fc15760405162461bcd60e51b81526004016104fd9061217c565b610fcd600083836112bd565b6001600160a01b0382166000908152600560205260408120805460019290610ff6908490612742565b909155505060008181526004602052604080822080546001600160a01b0319166001600160a01b03861690811790915590518392907fddf252ad1be2c89b69c2b068fc378daa952ba7f163c4a11628f55a4df523b3ef908290a45050565b80546001019055565b6110656107c7565b156110825760405162461bcd60e51b81526004016104fd906122d7565b600c805460ff191660011790557f62e78cea01bee320cd4e420270b5ea74000d11b0c9f74754ebdbfc544b05a258610eb3610b90565b60006109168383611512565b816001600160a01b0316836001600160a01b031614156110f65760405162461bcd60e51b81526004016104fd90612254565b6001600160a01b0383811660008181526007602090815260408083209487168084529490915290819020805460ff1916851515179055517f17307eab39ab6107e8899845ad3d59bd9653f200f220920489ca2b5937696c319061115a90859061200a565b60405180910390a3505050565b611172848484610c87565b61117e8484848461154a565b6109a55760405162461bcd60e51b81526004016104fd9061212a565b60606111a582610b73565b6111c15760405162461bcd60e51b81526004016104fd906124bb565b60006111cb611665565b905060008151116111eb5760405180602001604052806000815250610916565b806111f584611674565b604051602001611206929190611eec565b6040516020818303038152906040529392505050565b600061043c82610f71565b60006109168284612742565b600061123f838361178f565b61127557508154600181810184556000848152602080822090930184905584548482528286019093526040902091909155610680565b506000610680565b60006001600160e01b031982166380ac58cd60e01b14806112ae57506001600160e01b03198216635b5e139f60e01b145b8061043c575061043c826117a7565b6105b58383836117cc565b606060006112d783600261276e565b6112e2906002612742565b67ffffffffffffffff81111561130857634e487b7160e01b600052604160045260246000fd5b6040519080825280601f01601f191660200182016040528015611332576020820181803683370190505b509050600360fc1b8160008151811061135b57634e487b7160e01b600052603260045260246000fd5b60200101906001600160f81b031916908160001a905350600f60fb1b8160018151811061139857634e487b7160e01b600052603260045260246000fd5b60200101906001600160f81b031916908160001a90535060006113bc84600261276e565b6113c7906001612742565b90505b600181111561145b576f181899199a1a9b1b9c1cb0b131b232b360811b85600f166010811061140957634e487b7160e01b600052603260045260246000fd5b1a60f81b82828151811061142d57634e487b7160e01b600052603260045260246000fd5b60200101906001600160f81b031916908160001a90535060049490941c93611454816127d0565b90506113ca565b5083156109165760405162461bcd60e51b81526004016104fd90612031565b611484828261091d565b156106c8576000828152602081815260408083206001600160a01b03851684529091529020805460ff191690556114b9610b90565b6001600160a01b0316816001600160a01b0316837ff6391f5c32d9c69d2a47ea670b442974b53935d1edc7fd64eb21e047a839171b60405160405180910390a45050565b6000610916836001600160a01b0384166117fc565b600082600001828154811061153757634e487b7160e01b600052603260045260246000fd5b9060005260206000200154905092915050565b600061155e846001600160a01b0316611919565b1561165a57836001600160a01b031663150b7a0261157a610b90565b8786866040518563ffffffff1660e01b815260040161159c9493929190611fcd565b602060405180830381600087803b1580156115b657600080fd5b505af19250505080156115e6575060408051601f3d908101601f191682019092526115e391810190611ea4565b60015b611640573d808015611614576040519150601f19603f3d011682016040523d82523d6000602084013e611619565b606091505b5080516116385760405162461bcd60e51b81526004016104fd9061212a565b805181602001fd5b6001600160e01b031916630a85bd0160e11b149050610c7f565b506001949350505050565b6060600e8054610453906127e7565b60608161169957506040805180820190915260018152600360fc1b602082015261043f565b8160005b81156116c357806116ad81612822565b91506116bc9050600a8361275a565b915061169d565b60008167ffffffffffffffff8111156116ec57634e487b7160e01b600052604160045260246000fd5b6040519080825280601f01601f191660200182016040528015611716576020820181803683370190505b5090505b8415610c7f5761172b60018361278d565b9150611738600a8661283d565b611743906030612742565b60f81b81838151811061176657634e487b7160e01b600052603260045260246000fd5b60200101906001600160f81b031916908160001a905350611788600a8661275a565b945061171a565b60009081526001919091016020526040902054151590565b60006001600160e01b03198216635a05180f60e01b148061043c575061043c8261191f565b6117d7838383611944565b6117df6107c7565b156105b55760405162461bcd60e51b81526004016104fd90612066565b6000818152600183016020526040812054801561190f57600061182060018361278d565b85549091506000906118349060019061278d565b90508181146118b557600086600001828154811061186257634e487b7160e01b600052603260045260246000fd5b906000526020600020015490508087600001848154811061189357634e487b7160e01b600052603260045260246000fd5b6000918252602080832090910192909255918252600188019052604090208390555b85548690806118d457634e487b7160e01b600052603160045260246000fd5b600190038181906000526020600020016000905590558560010160008681526020019081526020016000206000905560019350505050610680565b6000915050610680565b3b151590565b60006001600160e01b03198216637965db0b60e01b148061043c575061043c826119cd565b61194f8383836105b5565b6001600160a01b03831661196b57611966816119e6565b61198e565b816001600160a01b0316836001600160a01b03161461198e5761198e8382611a2a565b6001600160a01b0382166119aa576119a581611ac7565b6105b5565b826001600160a01b0316826001600160a01b0316146105b5576105b58282611ba0565b6001600160e01b031981166301ffc9a760e01b14919050565b600a80546000838152600b60205260408120829055600182018355919091527fc65a7bb8d6351c1cf70c95a316cc6a92839c986682d98bc35f958f4883f9d2a80155565b60006001611a378461086a565b611a41919061278d565b600083815260096020526040902054909150808214611a94576001600160a01b03841660009081526008602090815260408083208584528252808320548484528184208190558352600990915290208190555b5060009182526009602090815260408084208490556001600160a01b039094168352600881528383209183525290812055565b600a54600090611ad99060019061278d565b6000838152600b6020526040812054600a8054939450909284908110611b0f57634e487b7160e01b600052603260045260246000fd5b9060005260206000200154905080600a8381548110611b3e57634e487b7160e01b600052603260045260246000fd5b6000918252602080832090910192909255828152600b9091526040808220849055858252812055600a805480611b8457634e487b7160e01b600052603160045260246000fd5b6001900381819060005260206000200160009055905550505050565b6000611bab8361086a565b6001600160a01b039093166000908152600860209081526040808320868452825280832085905593825260099052919091209190915550565b600067ffffffffffffffff80841115611bff57611bff61287d565b604051601f8501601f191681016020018281118282101715611c2357611c2361287d565b604052848152915081838501861015611c3b57600080fd5b8484602083013760006020868301015250509392505050565b80356001600160a01b038116811461043f57600080fd5b600060208284031215611c7c578081fd5b61091682611c54565b60008060408385031215611c97578081fd5b611ca083611c54565b9150611cae60208401611c54565b90509250929050565b600080600060608486031215611ccb578081fd5b611cd484611c54565b9250611ce260208501611c54565b9150604084013590509250925092565b60008060008060808587031215611d07578081fd5b611d1085611c54565b9350611d1e60208601611c54565b925060408501359150606085013567ffffffffffffffff811115611d40578182fd5b8501601f81018713611d50578182fd5b611d5f87823560208401611be4565b91505092959194509250565b60008060408385031215611d7d578182fd5b611d8683611c54565b915060208301358015158114611d9a578182fd5b809150509250929050565b60008060408385031215611db7578182fd5b611dc083611c54565b9150602083013567ffffffffffffffff811115611ddb578182fd5b8301601f81018513611deb578182fd5b611dfa85823560208401611be4565b9150509250929050565b60008060408385031215611e16578182fd5b611e1f83611c54565b946020939093013593505050565b600060208284031215611e3e578081fd5b5035919050565b60008060408385031215611e57578182fd5b82359150611cae60208401611c54565b60008060408385031215611e79578182fd5b50508035926020909101359150565b600060208284031215611e99578081fd5b813561091681612893565b600060208284031215611eb5578081fd5b815161091681612893565b60008151808452611ed88160208601602086016127a4565b601f01601f19169290920160200192915050565b60008351611efe8184602088016127a4565b835190830190611f128183602088016127a4565b01949350505050565b60008251611f2d8184602087016127a4565b64173539b7b760d91b920191825250600501919050565b60007f416363657373436f6e74726f6c3a206163636f756e742000000000000000000082528351611f7c8160178501602088016127a4565b7001034b99036b4b9b9b4b733903937b6329607d1b6017918401918201528351611fad8160288401602088016127a4565b01602801949350505050565b6001600160a01b0391909116815260200190565b6001600160a01b038581168252841660208201526040810183905260806060820181905260009061200090830184611ec0565b9695505050505050565b901515815260200190565b90815260200190565b6000602082526109166020830184611ec0565b6020808252818101527f537472696e67733a20686578206c656e67746820696e73756666696369656e74604082015260600190565b6020808252602b908201527f4552433732315061757361626c653a20746f6b656e207472616e73666572207760408201526a1a1a5b19481c185d5cd95960aa1b606082015260800190565b60208082526014908201527314185d5cd8589b194e881b9bdd081c185d5cd95960621b604082015260600190565b6020808252602b908201527f455243373231456e756d657261626c653a206f776e657220696e646578206f7560408201526a74206f6620626f756e647360a81b606082015260800190565b60208082526032908201527f4552433732313a207472616e7366657220746f206e6f6e20455243373231526560408201527131b2b4bb32b91034b6b83632b6b2b73a32b960711b606082015260800190565b6020808252601c908201527f4552433732313a20746f6b656e20616c7265616479206d696e74656400000000604082015260600190565b6020808252603e908201527f4552433732315072657365744d696e7465725061757365724175746f49643a2060408201527f6d75737420686176652070617573657220726f6c6520746f2070617573650000606082015260800190565b60208082526024908201527f4552433732313a207472616e7366657220746f20746865207a65726f206164646040820152637265737360e01b606082015260800190565b60208082526019908201527f4552433732313a20617070726f766520746f2063616c6c657200000000000000604082015260600190565b6020808252602c908201527f4552433732313a206f70657261746f7220717565727920666f72206e6f6e657860408201526b34b9ba32b73a103a37b5b2b760a11b606082015260800190565b60208082526010908201526f14185d5cd8589b194e881c185d5cd95960821b604082015260600190565b60208082526038908201527f4552433732313a20617070726f76652063616c6c6572206973206e6f74206f7760408201527f6e6572206e6f7220617070726f76656420666f7220616c6c0000000000000000606082015260800190565b6020808252602a908201527f4552433732313a2062616c616e636520717565727920666f7220746865207a65604082015269726f206164647265737360b01b606082015260800190565b60208082526029908201527f4552433732313a206f776e657220717565727920666f72206e6f6e657869737460408201526832b73a103a37b5b2b760b91b606082015260800190565b6020808252818101527f4552433732313a206d696e7420746f20746865207a65726f2061646472657373604082015260600190565b6020808252602c908201527f4552433732313a20617070726f76656420717565727920666f72206e6f6e657860408201526b34b9ba32b73a103a37b5b2b760a11b606082015260800190565b60208082526029908201527f4552433732313a207472616e73666572206f6620746f6b656e2074686174206960408201526839903737ba1037bbb760b91b606082015260800190565b6020808252602f908201527f4552433732314d657461646174613a2055524920717565727920666f72206e6f60408201526e3732bc34b9ba32b73a103a37b5b2b760891b606082015260800190565b60208082526021908201527f4552433732313a20617070726f76616c20746f2063757272656e74206f776e656040820152603960f91b606082015260800190565b60208082526031908201527f4552433732313a207472616e736665722063616c6c6572206973206e6f74206f6040820152701ddb995c881b9bdc88185c1c1c9bdd9959607a1b606082015260800190565b6020808252602c908201527f455243373231456e756d657261626c653a20676c6f62616c20696e646578206f60408201526b7574206f6620626f756e647360a01b606082015260800190565b6020808252603d908201527f4552433732315072657365744d696e7465725061757365724175746f49643a2060408201527f6d7573742068617665206d696e74657220726f6c6520746f206d696e74000000606082015260800190565b60208082526030908201527f4552433732314275726e61626c653a2063616c6c6572206973206e6f74206f7760408201526f1b995c881b9bdc88185c1c1c9bdd995960821b606082015260800190565b602080825260409082018190527f4552433732315072657365744d696e7465725061757365724175746f49643a20908201527f6d75737420686176652070617573657220726f6c6520746f20756e7061757365606082015260800190565b6020808252602f908201527f416363657373436f6e74726f6c3a2063616e206f6e6c792072656e6f756e636560408201526e103937b632b9903337b91039b2b63360891b606082015260800190565b6000821982111561275557612755612851565b500190565b60008261276957612769612867565b500490565b600081600019048311821515161561278857612788612851565b500290565b60008282101561279f5761279f612851565b500390565b60005b838110156127bf5781810151838201526020016127a7565b838111156109a55750506000910152565b6000816127df576127df612851565b506000190190565b6002810460018216806127fb57607f821691505b6020821081141561281c57634e487b7160e01b600052602260045260246000fd5b50919050565b600060001982141561283657612836612851565b5060010190565b60008261284c5761284c612867565b500690565b634e487b7160e01b600052601160045260246000fd5b634e487b7160e01b600052601260045260246000fd5b634e487b7160e01b600052604160045260246000fd5b6001600160e01b03198116811461076957600080fdfea2646970667358221220f517c40027eba2b0e049e32a88bfa62c0e9e914e90446e832b928373604d049764736f6c63430008000033",
  "immutableReferences": {},
  "source": "pragma solidity ^0.8.0;\r\n\r\nimport \"@openzeppelin/contracts/token/ERC721/presets/ERC721PresetMinterPauserAutoId.sol\";\r\nimport \"@openzeppelin/contracts/utils/math/SafeMath.sol\";\r\n\r\n\r\n\r\ncontract MemoryToken is ERC721PresetMinterPauserAutoId {\r\n    using SafeMath for uint256;\r\n    constructor() ERC721PresetMinterPauserAutoId(\"MemoryToken\", \"MEM\", \"https://google.com/metadata\") {}\r\n    \r\n    function tokenURI(uint256 tokenId) public view virtual override returns (string memory) {\r\n    return string(abi.encodePacked(super.tokenURI(tokenId),\".json\"));\r\n    }\r\n\r\n    function mint(address _to, string memory _tokenURI) public returns(bool) {\r\n        uint _tokenId = totalSupply().add(1);\r\n        _mint(_to, _tokenId);\r\n        // _baseTokenURI(_tokenId, _tokenURI);\r\n        return true;\r\n    }\r\n    }\r\n\r\n//     function mint(address _to, string memory _tokenURI) public returns(bool) {\r\n//        uint _tokenId = totalSupply().add(1);\r\n//        _mint(_to, _tokenId);\r\n//        _setTokenURI(_tokenId, _tokenURI);\r\n//        return true;\r\n//     }\r\n// }\r\n",
  "sourcePath": "C:\\Users\\WorkKing\\PXdev\\december\\Dapp\\Memory\\src\\contracts\\MemoryToken.sol",
  "compiler": {
    "name": "solc",
    "version": "0.8.0+commit.c7dfd78e.Emscripten.clang"
  },
  "schemaVersion": "3.4.3",
  "updatedAt": "2021-12-10T07:49:46.115Z",
  "devdoc": {
    "kind": "dev",
    "methods": {
      "approve(address,uint256)": {
        "details": "See {IERC721-approve}."
      },
      "balanceOf(address)": {
        "details": "See {IERC721-balanceOf}."
      },
      "burn(uint256)": {
        "details": "Burns `tokenId`. See {ERC721-_burn}. Requirements: - The caller must own `tokenId` or be an approved operator."
      },
      "getApproved(uint256)": {
        "details": "See {IERC721-getApproved}."
      },
      "getRoleAdmin(bytes32)": {
        "details": "Returns the admin role that controls `role`. See {grantRole} and {revokeRole}. To change a role's admin, use {_setRoleAdmin}."
      },
      "getRoleMember(bytes32,uint256)": {
        "details": "Returns one of the accounts that have `role`. `index` must be a value between 0 and {getRoleMemberCount}, non-inclusive. Role bearers are not sorted in any particular way, and their ordering may change at any point. WARNING: When using {getRoleMember} and {getRoleMemberCount}, make sure you perform all queries on the same block. See the following https://forum.openzeppelin.com/t/iterating-over-elements-on-enumerableset-in-openzeppelin-contracts/2296[forum post] for more information."
      },
      "getRoleMemberCount(bytes32)": {
        "details": "Returns the number of accounts that have `role`. Can be used together with {getRoleMember} to enumerate all bearers of a role."
      },
      "grantRole(bytes32,address)": {
        "details": "Grants `role` to `account`. If `account` had not been already granted `role`, emits a {RoleGranted} event. Requirements: - the caller must have ``role``'s admin role."
      },
      "hasRole(bytes32,address)": {
        "details": "Returns `true` if `account` has been granted `role`."
      },
      "isApprovedForAll(address,address)": {
        "details": "See {IERC721-isApprovedForAll}."
      },
      "mint(address)": {
        "details": "Creates a new token for `to`. Its token ID will be automatically assigned (and available on the emitted {IERC721-Transfer} event), and the token URI autogenerated based on the base URI passed at construction. See {ERC721-_mint}. Requirements: - the caller must have the `MINTER_ROLE`."
      },
      "name()": {
        "details": "See {IERC721Metadata-name}."
      },
      "ownerOf(uint256)": {
        "details": "See {IERC721-ownerOf}."
      },
      "pause()": {
        "details": "Pauses all token transfers. See {ERC721Pausable} and {Pausable-_pause}. Requirements: - the caller must have the `PAUSER_ROLE`."
      },
      "paused()": {
        "details": "Returns true if the contract is paused, and false otherwise."
      },
      "renounceRole(bytes32,address)": {
        "details": "Revokes `role` from the calling account. Roles are often managed via {grantRole} and {revokeRole}: this function's purpose is to provide a mechanism for accounts to lose their privileges if they are compromised (such as when a trusted device is misplaced). If the calling account had been revoked `role`, emits a {RoleRevoked} event. Requirements: - the caller must be `account`."
      },
      "revokeRole(bytes32,address)": {
        "details": "Revokes `role` from `account`. If `account` had been granted `role`, emits a {RoleRevoked} event. Requirements: - the caller must have ``role``'s admin role."
      },
      "safeTransferFrom(address,address,uint256)": {
        "details": "See {IERC721-safeTransferFrom}."
      },
      "safeTransferFrom(address,address,uint256,bytes)": {
        "details": "See {IERC721-safeTransferFrom}."
      },
      "setApprovalForAll(address,bool)": {
        "details": "See {IERC721-setApprovalForAll}."
      },
      "supportsInterface(bytes4)": {
        "details": "See {IERC165-supportsInterface}."
      },
      "symbol()": {
        "details": "See {IERC721Metadata-symbol}."
      },
      "tokenByIndex(uint256)": {
        "details": "See {IERC721Enumerable-tokenByIndex}."
      },
      "tokenOfOwnerByIndex(address,uint256)": {
        "details": "See {IERC721Enumerable-tokenOfOwnerByIndex}."
      },
      "tokenURI(uint256)": {
        "details": "See {IERC721Metadata-tokenURI}."
      },
      "totalSupply()": {
        "details": "See {IERC721Enumerable-totalSupply}."
      },
      "transferFrom(address,address,uint256)": {
        "details": "See {IERC721-transferFrom}."
      },
      "unpause()": {
        "details": "Unpauses all token transfers. See {ERC721Pausable} and {Pausable-_unpause}. Requirements: - the caller must have the `PAUSER_ROLE`."
      }
    },
    "version": 1
  },
  "userdoc": {
    "kind": "user",
    "methods": {},
    "version": 1
  }
}