{
  "contractName": "PurseTokenUpgradable",
  "abi": [
    {
      "anonymous": false,
      "inputs": [
        {
          "indexed": false,
          "internalType": "address",
          "name": "previousAdmin",
          "type": "address"
        },
        {
          "indexed": false,
          "internalType": "address",
          "name": "newAdmin",
          "type": "address"
        }
      ],
      "name": "AdminChanged",
      "type": "event"
    },
    {
      "anonymous": false,
      "inputs": [
        {
          "indexed": true,
          "internalType": "address",
          "name": "_owner",
          "type": "address"
        },
        {
          "indexed": true,
          "internalType": "address",
          "name": "_spender",
          "type": "address"
        },
        {
          "indexed": false,
          "internalType": "uint256",
          "name": "_value",
          "type": "uint256"
        }
      ],
      "name": "Approval",
      "type": "event"
    },
    {
      "anonymous": false,
      "inputs": [
        {
          "indexed": true,
          "internalType": "address",
          "name": "beacon",
          "type": "address"
        }
      ],
      "name": "BeaconUpgraded",
      "type": "event"
    },
    {
      "anonymous": false,
      "inputs": [
        {
          "indexed": true,
          "internalType": "address",
          "name": "_from",
          "type": "address"
        },
        {
          "indexed": false,
          "internalType": "uint256",
          "name": "_value",
          "type": "uint256"
        }
      ],
      "name": "Burn",
      "type": "event"
    },
    {
      "anonymous": false,
      "inputs": [
        {
          "indexed": true,
          "internalType": "address",
          "name": "_from",
          "type": "address"
        },
        {
          "indexed": true,
          "internalType": "address",
          "name": "_to",
          "type": "address"
        },
        {
          "indexed": false,
          "internalType": "uint256",
          "name": "_value",
          "type": "uint256"
        }
      ],
      "name": "Mint",
      "type": "event"
    },
    {
      "anonymous": false,
      "inputs": [
        {
          "indexed": true,
          "internalType": "address",
          "name": "previousOwner",
          "type": "address"
        },
        {
          "indexed": true,
          "internalType": "address",
          "name": "newOwner",
          "type": "address"
        }
      ],
      "name": "OwnershipTransferred",
      "type": "event"
    },
    {
      "anonymous": false,
      "inputs": [
        {
          "indexed": false,
          "internalType": "address",
          "name": "account",
          "type": "address"
        }
      ],
      "name": "Paused",
      "type": "event"
    },
    {
      "anonymous": false,
      "inputs": [
        {
          "indexed": true,
          "internalType": "address",
          "name": "_from",
          "type": "address"
        },
        {
          "indexed": true,
          "internalType": "address",
          "name": "_to",
          "type": "address"
        },
        {
          "indexed": false,
          "internalType": "uint256",
          "name": "_value",
          "type": "uint256"
        }
      ],
      "name": "Transfer",
      "type": "event"
    },
    {
      "anonymous": false,
      "inputs": [
        {
          "indexed": false,
          "internalType": "address",
          "name": "account",
          "type": "address"
        }
      ],
      "name": "Unpaused",
      "type": "event"
    },
    {
      "anonymous": false,
      "inputs": [
        {
          "indexed": false,
          "internalType": "uint256",
          "name": "_newMinimumSupply",
          "type": "uint256"
        }
      ],
      "name": "UpdateMinSupply",
      "type": "event"
    },
    {
      "anonymous": false,
      "inputs": [
        {
          "indexed": false,
          "internalType": "uint256",
          "name": "_newDisPercent",
          "type": "uint256"
        },
        {
          "indexed": false,
          "internalType": "uint256",
          "name": "_newLiqPercent",
          "type": "uint256"
        },
        {
          "indexed": false,
          "internalType": "uint256",
          "name": "_newBurnPercent",
          "type": "uint256"
        }
      ],
      "name": "UpdatePercent",
      "type": "event"
    },
    {
      "anonymous": false,
      "inputs": [
        {
          "indexed": true,
          "internalType": "address",
          "name": "implementation",
          "type": "address"
        }
      ],
      "name": "Upgraded",
      "type": "event"
    },
    {
      "inputs": [],
      "name": "_averageInterval",
      "outputs": [
        {
          "internalType": "uint256",
          "name": "",
          "type": "uint256"
        }
      ],
      "stateMutability": "view",
      "type": "function"
    },
    {
      "inputs": [],
      "name": "_getRewardEndTime",
      "outputs": [
        {
          "internalType": "uint256",
          "name": "",
          "type": "uint256"
        }
      ],
      "stateMutability": "view",
      "type": "function"
    },
    {
      "inputs": [],
      "name": "_getRewardStartTime",
      "outputs": [
        {
          "internalType": "uint256",
          "name": "",
          "type": "uint256"
        }
      ],
      "stateMutability": "view",
      "type": "function"
    },
    {
      "inputs": [],
      "name": "_lastRewardStartTime",
      "outputs": [
        {
          "internalType": "uint256",
          "name": "",
          "type": "uint256"
        }
      ],
      "stateMutability": "view",
      "type": "function"
    },
    {
      "inputs": [],
      "name": "_monthlyDistributePr",
      "outputs": [
        {
          "internalType": "uint256",
          "name": "",
          "type": "uint256"
        }
      ],
      "stateMutability": "view",
      "type": "function"
    },
    {
      "inputs": [],
      "name": "_numOfDaysPerMth",
      "outputs": [
        {
          "internalType": "uint256",
          "name": "",
          "type": "uint256"
        }
      ],
      "stateMutability": "view",
      "type": "function"
    },
    {
      "inputs": [],
      "name": "_percentageDistribute",
      "outputs": [
        {
          "internalType": "uint256",
          "name": "",
          "type": "uint256"
        }
      ],
      "stateMutability": "view",
      "type": "function"
    },
    {
      "inputs": [],
      "name": "_totalSupply",
      "outputs": [
        {
          "internalType": "uint256",
          "name": "",
          "type": "uint256"
        }
      ],
      "stateMutability": "view",
      "type": "function"
    },
    {
      "inputs": [
        {
          "internalType": "address",
          "name": "",
          "type": "address"
        }
      ],
      "name": "accAmount",
      "outputs": [
        {
          "internalType": "uint256",
          "name": "amount",
          "type": "uint256"
        },
        {
          "internalType": "uint256",
          "name": "accReward",
          "type": "uint256"
        },
        {
          "internalType": "uint256",
          "name": "lastUpdateTime",
          "type": "uint256"
        }
      ],
      "stateMutability": "view",
      "type": "function"
    },
    {
      "inputs": [
        {
          "internalType": "uint256",
          "name": "",
          "type": "uint256"
        }
      ],
      "name": "admins",
      "outputs": [
        {
          "internalType": "address",
          "name": "",
          "type": "address"
        }
      ],
      "stateMutability": "view",
      "type": "function"
    },
    {
      "inputs": [
        {
          "internalType": "address",
          "name": "",
          "type": "address"
        },
        {
          "internalType": "address",
          "name": "",
          "type": "address"
        }
      ],
      "name": "allowance",
      "outputs": [
        {
          "internalType": "uint256",
          "name": "",
          "type": "uint256"
        }
      ],
      "stateMutability": "view",
      "type": "function"
    },
    {
      "inputs": [
        {
          "internalType": "address",
          "name": "",
          "type": "address"
        }
      ],
      "name": "balanceOf",
      "outputs": [
        {
          "internalType": "uint256",
          "name": "",
          "type": "uint256"
        }
      ],
      "stateMutability": "view",
      "type": "function"
    },
    {
      "inputs": [],
      "name": "burnPercent",
      "outputs": [
        {
          "internalType": "uint256",
          "name": "",
          "type": "uint256"
        }
      ],
      "stateMutability": "view",
      "type": "function"
    },
    {
      "inputs": [],
      "name": "decimals",
      "outputs": [
        {
          "internalType": "uint8",
          "name": "",
          "type": "uint8"
        }
      ],
      "stateMutability": "view",
      "type": "function"
    },
    {
      "inputs": [],
      "name": "disPercent",
      "outputs": [
        {
          "internalType": "uint256",
          "name": "",
          "type": "uint256"
        }
      ],
      "stateMutability": "view",
      "type": "function"
    },
    {
      "inputs": [],
      "name": "disPool",
      "outputs": [
        {
          "internalType": "address",
          "name": "",
          "type": "address"
        }
      ],
      "stateMutability": "view",
      "type": "function"
    },
    {
      "inputs": [
        {
          "internalType": "address",
          "name": "",
          "type": "address"
        }
      ],
      "name": "isAdmin",
      "outputs": [
        {
          "internalType": "bool",
          "name": "",
          "type": "bool"
        }
      ],
      "stateMutability": "view",
      "type": "function"
    },
    {
      "inputs": [
        {
          "internalType": "address",
          "name": "",
          "type": "address"
        }
      ],
      "name": "isWhitelistedFrom",
      "outputs": [
        {
          "internalType": "bool",
          "name": "",
          "type": "bool"
        }
      ],
      "stateMutability": "view",
      "type": "function"
    },
    {
      "inputs": [
        {
          "internalType": "address",
          "name": "",
          "type": "address"
        }
      ],
      "name": "isWhitelistedTo",
      "outputs": [
        {
          "internalType": "bool",
          "name": "",
          "type": "bool"
        }
      ],
      "stateMutability": "view",
      "type": "function"
    },
    {
      "inputs": [],
      "name": "liqPercent",
      "outputs": [
        {
          "internalType": "uint256",
          "name": "",
          "type": "uint256"
        }
      ],
      "stateMutability": "view",
      "type": "function"
    },
    {
      "inputs": [],
      "name": "liqPool",
      "outputs": [
        {
          "internalType": "address",
          "name": "",
          "type": "address"
        }
      ],
      "stateMutability": "view",
      "type": "function"
    },
    {
      "inputs": [],
      "name": "minimumSupply",
      "outputs": [
        {
          "internalType": "uint256",
          "name": "",
          "type": "uint256"
        }
      ],
      "stateMutability": "view",
      "type": "function"
    },
    {
      "inputs": [],
      "name": "name",
      "outputs": [
        {
          "internalType": "string",
          "name": "",
          "type": "string"
        }
      ],
      "stateMutability": "view",
      "type": "function"
    },
    {
      "inputs": [],
      "name": "owner",
      "outputs": [
        {
          "internalType": "address",
          "name": "",
          "type": "address"
        }
      ],
      "stateMutability": "view",
      "type": "function"
    },
    {
      "inputs": [],
      "name": "paused",
      "outputs": [
        {
          "internalType": "bool",
          "name": "",
          "type": "bool"
        }
      ],
      "stateMutability": "view",
      "type": "function"
    },
    {
      "inputs": [],
      "name": "renounceOwnership",
      "outputs": [],
      "stateMutability": "nonpayable",
      "type": "function"
    },
    {
      "inputs": [],
      "name": "symbol",
      "outputs": [
        {
          "internalType": "string",
          "name": "",
          "type": "string"
        }
      ],
      "stateMutability": "view",
      "type": "function"
    },
    {
      "inputs": [],
      "name": "totalSupply",
      "outputs": [
        {
          "internalType": "uint256",
          "name": "",
          "type": "uint256"
        }
      ],
      "stateMutability": "view",
      "type": "function"
    },
    {
      "inputs": [
        {
          "internalType": "address",
          "name": "newOwner",
          "type": "address"
        }
      ],
      "name": "transferOwnership",
      "outputs": [],
      "stateMutability": "nonpayable",
      "type": "function"
    },
    {
      "inputs": [
        {
          "internalType": "address",
          "name": "newImplementation",
          "type": "address"
        }
      ],
      "name": "upgradeTo",
      "outputs": [],
      "stateMutability": "nonpayable",
      "type": "function"
    },
    {
      "inputs": [
        {
          "internalType": "address",
          "name": "newImplementation",
          "type": "address"
        },
        {
          "internalType": "bytes",
          "name": "data",
          "type": "bytes"
        }
      ],
      "name": "upgradeToAndCall",
      "outputs": [],
      "stateMutability": "payable",
      "type": "function"
    },
    {
      "inputs": [
        {
          "internalType": "address",
          "name": "_to",
          "type": "address"
        },
        {
          "internalType": "uint256",
          "name": "_value",
          "type": "uint256"
        }
      ],
      "name": "transfer",
      "outputs": [
        {
          "internalType": "bool",
          "name": "success",
          "type": "bool"
        }
      ],
      "stateMutability": "nonpayable",
      "type": "function"
    },
    {
      "inputs": [
        {
          "internalType": "address",
          "name": "_spender",
          "type": "address"
        },
        {
          "internalType": "uint256",
          "name": "_value",
          "type": "uint256"
        }
      ],
      "name": "approve",
      "outputs": [
        {
          "internalType": "bool",
          "name": "success",
          "type": "bool"
        }
      ],
      "stateMutability": "nonpayable",
      "type": "function"
    },
    {
      "inputs": [
        {
          "internalType": "address",
          "name": "_from",
          "type": "address"
        },
        {
          "internalType": "address",
          "name": "_to",
          "type": "address"
        },
        {
          "internalType": "uint256",
          "name": "_value",
          "type": "uint256"
        }
      ],
      "name": "transferFrom",
      "outputs": [
        {
          "internalType": "bool",
          "name": "success",
          "type": "bool"
        }
      ],
      "stateMutability": "nonpayable",
      "type": "function"
    },
    {
      "inputs": [
        {
          "internalType": "address",
          "name": "_account",
          "type": "address"
        },
        {
          "internalType": "uint256",
          "name": "_amount",
          "type": "uint256"
        }
      ],
      "name": "mint",
      "outputs": [],
      "stateMutability": "nonpayable",
      "type": "function"
    },
    {
      "inputs": [
        {
          "internalType": "uint256",
          "name": "_amount",
          "type": "uint256"
        }
      ],
      "name": "burn",
      "outputs": [],
      "stateMutability": "nonpayable",
      "type": "function"
    },
    {
      "inputs": [],
      "name": "claimDistributionPurse",
      "outputs": [
        {
          "internalType": "bool",
          "name": "success",
          "type": "bool"
        }
      ],
      "stateMutability": "nonpayable",
      "type": "function"
    },
    {
      "inputs": [
        {
          "internalType": "uint256",
          "name": "_rewardStartTime",
          "type": "uint256"
        },
        {
          "internalType": "uint256",
          "name": "_rewardEndTime",
          "type": "uint256"
        },
        {
          "internalType": "uint256",
          "name": "_monthlyDisPr",
          "type": "uint256"
        },
        {
          "internalType": "uint256",
          "name": "_numOfDays",
          "type": "uint256"
        },
        {
          "internalType": "uint256",
          "name": "_percentage",
          "type": "uint256"
        }
      ],
      "name": "activateClaimMonthly",
      "outputs": [],
      "stateMutability": "nonpayable",
      "type": "function"
    },
    {
      "inputs": [
        {
          "internalType": "address",
          "name": "_newLPool",
          "type": "address"
        }
      ],
      "name": "updateLPoolAdd",
      "outputs": [],
      "stateMutability": "nonpayable",
      "type": "function"
    },
    {
      "inputs": [
        {
          "internalType": "address",
          "name": "_newDPool",
          "type": "address"
        }
      ],
      "name": "updateDPoolAdd",
      "outputs": [],
      "stateMutability": "nonpayable",
      "type": "function"
    },
    {
      "inputs": [
        {
          "internalType": "uint256",
          "name": "_newDisPercent",
          "type": "uint256"
        },
        {
          "internalType": "uint256",
          "name": "_newLiqPercent",
          "type": "uint256"
        },
        {
          "internalType": "uint256",
          "name": "_newBurnPercent",
          "type": "uint256"
        }
      ],
      "name": "updatePercent",
      "outputs": [],
      "stateMutability": "nonpayable",
      "type": "function"
    },
    {
      "inputs": [
        {
          "internalType": "uint256",
          "name": "_minimumSupply",
          "type": "uint256"
        }
      ],
      "name": "updateMinimumSupply",
      "outputs": [],
      "stateMutability": "nonpayable",
      "type": "function"
    },
    {
      "inputs": [
        {
          "internalType": "address",
          "name": "newAdmin",
          "type": "address"
        }
      ],
      "name": "addAdmin",
      "outputs": [],
      "stateMutability": "nonpayable",
      "type": "function"
    },
    {
      "inputs": [
        {
          "internalType": "uint256",
          "name": "index",
          "type": "uint256"
        }
      ],
      "name": "removeAdmin",
      "outputs": [
        {
          "internalType": "address[]",
          "name": "",
          "type": "address[]"
        }
      ],
      "stateMutability": "nonpayable",
      "type": "function"
    },
    {
      "inputs": [
        {
          "internalType": "address",
          "name": "token",
          "type": "address"
        },
        {
          "internalType": "uint256",
          "name": "amount",
          "type": "uint256"
        },
        {
          "internalType": "address",
          "name": "_to",
          "type": "address"
        }
      ],
      "name": "transferERCToken",
      "outputs": [],
      "stateMutability": "nonpayable",
      "type": "function"
    },
    {
      "inputs": [],
      "name": "pause",
      "outputs": [],
      "stateMutability": "nonpayable",
      "type": "function"
    },
    {
      "inputs": [],
      "name": "unpause",
      "outputs": [],
      "stateMutability": "nonpayable",
      "type": "function"
    },
    {
      "inputs": [
        {
          "internalType": "address",
          "name": "newWhitelist",
          "type": "address"
        }
      ],
      "name": "setWhitelistedTo",
      "outputs": [],
      "stateMutability": "nonpayable",
      "type": "function"
    },
    {
      "inputs": [
        {
          "internalType": "address",
          "name": "newWhitelist",
          "type": "address"
        }
      ],
      "name": "removeWhitelistedTo",
      "outputs": [],
      "stateMutability": "nonpayable",
      "type": "function"
    },
    {
      "inputs": [
        {
          "internalType": "address",
          "name": "newWhitelist",
          "type": "address"
        }
      ],
      "name": "setWhitelistedFrom",
      "outputs": [],
      "stateMutability": "nonpayable",
      "type": "function"
    },
    {
      "inputs": [
        {
          "internalType": "address",
          "name": "newWhitelist",
          "type": "address"
        }
      ],
      "name": "removeWhitelistedFrom",
      "outputs": [],
      "stateMutability": "nonpayable",
      "type": "function"
    },
    {
      "inputs": [
        {
          "internalType": "address",
          "name": "_to",
          "type": "address"
        },
        {
          "internalType": "address",
          "name": "_lPool",
          "type": "address"
        },
        {
          "internalType": "uint256",
          "name": "_burnPercent",
          "type": "uint256"
        },
        {
          "internalType": "uint256",
          "name": "_liqPercent",
          "type": "uint256"
        },
        {
          "internalType": "uint256",
          "name": "_disPercent",
          "type": "uint256"
        }
      ],
      "name": "initialize",
      "outputs": [],
      "stateMutability": "nonpayable",
      "type": "function"
    }
  ],
  "bytecode": "0x60a06040523060601b60805234801561001757600080fd5b5060805160601c613ce061004b60003960008181610fee0152818161102e0152818161165101526116910152613ce06000f3fe6080604052600436106102ff5760003560e01c80637048027511610190578063b7c74bd3116100dc578063d13f90b411610095578063dd62ed3e1161006f578063dd62ed3e14610912578063e2657da11461094b578063f2fde38b1461096b578063f75672441461098b576102ff565b8063d13f90b4146108bb578063d5529204146108db578063d5b8ddf8146108f2576102ff565b8063b7c74bd3146107c4578063bab384401461081c578063bc8d571d1461083c578063c43c082f14610853578063c6ef924614610873578063ca04d2d81461088a576102ff565b80638456cb591161014957806395d89b411161012357806395d89b411461074b57806395e96ff114610760578063a9059cbb14610777578063ad7bbc2914610797576102ff565b80638456cb59146106f85780638da5cb5b1461070d57806395b13db31461072b576102ff565b8063704802751461064757806370a0823114610667578063715018a614610695578063740b91f4146106aa5780637888f7b2146106cb5780637ede036d146106e2576102ff565b806335e8b82e1161024f57806342966c68116102085780634f1ef286116101e25780634f1ef286146105d45780635422e495146105e75780635b014029146105fe5780635c975abb1461062f576102ff565b806342966c6814610574578063434f9237146105945780634d28b4ba146105b4576102ff565b806335e8b82e146104c65780633659cfe6146104e85780633838d4e3146105085780633eaaf86b146105285780633f4ba83a1461053f57806340c10f1914610554576102ff565b806318160ddd116102bc57806324d7806c1161029657806324d7806c1461043157806327ba6e1114610462578063313ce56714610483578063347d34c6146104af576102ff565b806318160ddd146103e457806320b1e78a146103fa57806323b872dd14610411576102ff565b806303807ee51461030457806306fdde031461032e578063095ea7b3146103505780630f4307e21461038057806311a6c16c1461039757806314bfd6d0146103ac575b600080fd5b34801561031057600080fd5b5061031b6101035481565b6040519081526020015b60405180910390f35b34801561033a57600080fd5b506103436109ab565b604051610325919061397f565b34801561035c57600080fd5b5061037061036b366004613815565b610a39565b6040519015158152602001610325565b34801561038c57600080fd5b5061031b61010a5481565b3480156103a357600080fd5b50610370610ad3565b3480156103b857600080fd5b506103cc6103c7366004613899565b610c20565b6040516001600160a01b039091168152602001610325565b3480156103f057600080fd5b5061031b60fd5481565b34801561040657600080fd5b5061031b61010b5481565b34801561041d57600080fd5b5061037061042c3660046136d1565b610c4b565b34801561043d57600080fd5b5061037061044c366004613685565b6101106020526000908152604090205460ff1681565b34801561046e57600080fd5b50610102546103cc906001600160a01b031681565b34801561048f57600080fd5b5060fe5461049d9060ff1681565b60405160ff9091168152602001610325565b3480156104bb57600080fd5b5061031b6101065481565b3480156104d257600080fd5b506104e66104e1366004613685565b610f37565b005b3480156104f457600080fd5b506104e6610503366004613685565b610fe3565b34801561051457600080fd5b506104e6610523366004613685565b6110ac565b34801561053457600080fd5b5061031b61010d5481565b34801561054b57600080fd5b506104e661115b565b34801561056057600080fd5b506104e661056f366004613815565b6111d8565b34801561058057600080fd5b506104e661058f366004613899565b6112cc565b3480156105a057600080fd5b506104e66105af3660046138dc565b61138e565b3480156105c057600080fd5b506104e66105cf366004613685565b611597565b6104e66105e2366004613758565b611646565b3480156105f357600080fd5b5061031b6101045481565b34801561060a57600080fd5b50610370610619366004613685565b6101116020526000908152604090205460ff1681565b34801561063b57600080fd5b5060975460ff16610370565b34801561065357600080fd5b506104e6610662366004613685565b6116fc565b34801561067357600080fd5b5061031b610682366004613685565b61010e6020526000908152604090205481565b3480156106a157600080fd5b506104e66117e3565b3480156106b657600080fd5b50610101546103cc906001600160a01b031681565b3480156106d757600080fd5b5061031b61010c5481565b3480156106ee57600080fd5b5061031b60ff5481565b34801561070457600080fd5b506104e6611817565b34801561071957600080fd5b5060c9546001600160a01b03166103cc565b34801561073757600080fd5b506104e6610746366004613899565b61186c565b34801561075757600080fd5b506103436118d1565b34801561076c57600080fd5b5061031b6101095481565b34801561078357600080fd5b50610370610792366004613815565b6118de565b3480156107a357600080fd5b506107b76107b2366004613899565b6119b7565b6040516103259190613932565b3480156107d057600080fd5b506108016107df366004613685565b6101136020526000908152604090208054600182015460029092015490919083565b60408051938452602084019290925290820152606001610325565b34801561082857600080fd5b506104e6610837366004613685565b611c3f565b34801561084857600080fd5b5061031b6101085481565b34801561085f57600080fd5b506104e661086e3660046138b1565b611ceb565b34801561087f57600080fd5b5061031b6101055481565b34801561089657600080fd5b506103706108a5366004613685565b6101126020526000908152604090205460ff1681565b3480156108c757600080fd5b506104e66108d636600461370c565b611dcb565b3480156108e757600080fd5b5061031b6101075481565b3480156108fe57600080fd5b506104e661090d36600461383e565b612037565b34801561091e57600080fd5b5061031b61092d36600461369f565b61010f60209081526000928352604080842090915290825290205481565b34801561095757600080fd5b506104e6610966366004613685565b6120f6565b34801561097757600080fd5b506104e6610986366004613685565b6121a5565b34801561099757600080fd5b506104e66109a6366004613685565b61223d565b60fb80546109b890613be1565b80601f01602080910402602001604051908101604052809291908181526020018280546109e490613be1565b8015610a315780601f10610a0657610100808354040283529160200191610a31565b820191906000526020600020905b815481529060010190602001808311610a1457829003601f168201915b505050505081565b6000610a4760975460ff1690565b15610a6d5760405162461bcd60e51b8152600401610a6490613a76565b60405180910390fd5b33600081815261010f602090815260408083206001600160a01b03881680855290835292819020869055518581529192917f8c5be1e5ebec7d5bd14f71427d1e84f3dd0314c0f7b2291e5b200ac8c7c3b92591015b60405180910390a350600192915050565b6000610ae160975460ff1690565b15610afe5760405162461bcd60e51b8152600401610a6490613a76565b610108544211610b445760405162461bcd60e51b815260206004820152601160248201527010db185a5b481b9bdd081cdd185c9d1959607a1b6044820152606401610a64565b610107544210610b8a5760405162461bcd60e51b815260206004820152601160248201527021b630b4b6903832b934b7b21037bb32b960791b6044820152606401610a64565b610b93336122ec565b3360009081526101136020526040902060010154610be65760405162461bcd60e51b815260206004820152601060248201526f0557365722072657761726420697320360841b6044820152606401610a64565b336000818152610113602052604081206001018054919055610102549091610c18916001600160a01b03169083612989565b600191505090565b6101008181548110610c3157600080fd5b6000918252602090912001546001600160a01b0316905081565b6000610c5960975460ff1690565b15610c765760405162461bcd60e51b8152600401610a6490613a76565b6001600160a01b038416600090815261010e6020526040902054821115610caf5760405162461bcd60e51b8152600401610a6490613a4a565b6001600160a01b038416600090815261010f60209081526040808320338452909152902054821115610d1a5760405162461bcd60e51b81526020600482015260146024820152734e6f7420656e6f75676820616c6c6f77616e636560601b6044820152606401610a64565b6001600160a01b0383166000908152610111602052604090205460ff1680610d525750336000908152610112602052604090205460ff165b15610e3c576001600160a01b038416600090815261010f6020908152604080832033845290915281208054849290610d8b908490613b9a565b90915550610d9b905084846129db565b6001600160a01b038416600090815261010e602052604081208054849290610dc4908490613b9a565b90915550506001600160a01b038316600090815261010e602052604081208054849290610df2908490613b43565b92505081905550826001600160a01b0316846001600160a01b0316600080516020613c8b83398151915284604051610e2c91815260200190565b60405180910390a3506001610f30565b6001600160a01b038416600090815261010f6020908152604080832033845290915281208054849290610e70908490613b9a565b90915550610e80905084846129db565b6000610e8c83866129ed565b6001600160a01b038616600090815261010e6020526040812080549293508392909190610eba908490613b9a565b90915550506001600160a01b038416600090815261010e602052604081208054839290610ee8908490613b43565b92505081905550836001600160a01b0316856001600160a01b0316600080516020613c8b83398151915283604051610f2291815260200190565b60405180910390a360019150505b9392505050565b60c9546001600160a01b03163314610f615760405162461bcd60e51b8152600401610a6490613ac3565b610101546001600160a01b0382811691161415610fc05760405162461bcd60e51b815260206004820152601a60248201527f53616d6520776974682070726576696f757320616464726573730000000000006044820152606401610a64565b61010180546001600160a01b0319166001600160a01b0392909216919091179055565b306001600160a01b037f000000000000000000000000000000000000000000000000000000000000000016141561102c5760405162461bcd60e51b8152600401610a64906139b2565b7f00000000000000000000000000000000000000000000000000000000000000006001600160a01b031661105e612a3a565b6001600160a01b0316146110845760405162461bcd60e51b8152600401610a64906139fe565b61108d81612a68565b604080516000808252602082019092526110a991839190612a92565b50565b60c9546001600160a01b031633146110d65760405162461bcd60e51b8152600401610a6490613ac3565b6001600160a01b0381166000908152610112602052604090205460ff16156111365760405162461bcd60e51b815260206004820152601360248201527277686974656c6973746564204164647265737360681b6044820152606401610a64565b6001600160a01b0316600090815261011260205260409020805460ff19166001179055565b60975460ff166111a45760405162461bcd60e51b815260206004820152601460248201527314185d5cd8589b194e881b9bdd081c185d5cd95960621b6044820152606401610a64565b60c9546001600160a01b031633146111ce5760405162461bcd60e51b8152600401610a6490613ac3565b6111d6612bdd565b565b60975460ff16156111fb5760405162461bcd60e51b8152600401610a6490613a76565b336000908152610110602052604090205460ff166112475760405162461bcd60e51b81526020600482015260096024820152682737ba1020b236b4b760b91b6044820152606401610a64565b6001600160a01b03821661126d5760405162461bcd60e51b8152600401610a6490613aa0565b611276826122ec565b6001600160a01b038216600090815261010e60205260408120805483929061129f908490613b43565b925050819055508060fd60008282546112b89190613b43565b909155506112c890508282612c70565b5050565b60975460ff16156112ef5760405162461bcd60e51b8152600401610a6490613a76565b8061130c5760405162461bcd60e51b8152600401610a6490613aa0565b33600090815261010e602052604090205481111561133c5760405162461bcd60e51b8152600401610a6490613a4a565b611345336122ec565b33600090815261010e602052604081208054839290611365908490613b9a565b925050819055508060fd600082825461137e9190613b9a565b909155506110a990503382612ce5565b336000908152610110602052604090205460ff166113da5760405162461bcd60e51b81526020600482015260096024820152682737ba1020b236b4b760b91b6044820152606401610a64565b4285116114225760405162461bcd60e51b81526020600482015260166024820152754c657373207468616e2063757272656e742074696d6560501b6044820152606401610a64565b8484116114685760405162461bcd60e51b81526020600482015260146024820152734c657373207468616e2073746172742074696d6560601b6044820152606401610a64565b600082116114a65760405162461bcd60e51b815260206004820152600b60248201526a04c657373207468616e20360ac1b6044820152606401610a64565b6000811180156114b7575060648111155b6115035760405162461bcd60e51b815260206004820152601c60248201527f4c657373207468616e2030206f72204d6f7265207468616e20313030000000006044820152606401610a64565b30600090815261010e602052604090205483111561155c5760405162461bcd60e51b81526020600482015260166024820152754d6f7265207468616e20706f6f6c2062616c616e636560501b6044820152606401610a64565b60fd5461010d556101085415611575576101085461010c555b61010991909155610108939093556101079190915561010b9190915561010a55565b60c9546001600160a01b031633146115c15760405162461bcd60e51b8152600401610a6490613ac3565b6001600160a01b0381166000908152610112602052604090205460ff166116245760405162461bcd60e51b81526020600482015260176024820152764e6f6e2077686974656c6973746564204164647265737360481b6044820152606401610a64565b6001600160a01b0316600090815261011260205260409020805460ff19169055565b306001600160a01b037f000000000000000000000000000000000000000000000000000000000000000016141561168f5760405162461bcd60e51b8152600401610a64906139b2565b7f00000000000000000000000000000000000000000000000000000000000000006001600160a01b03166116c1612a3a565b6001600160a01b0316146116e75760405162461bcd60e51b8152600401610a64906139fe565b6116f082612a68565b6112c882826001612a92565b60c9546001600160a01b031633146117265760405162461bcd60e51b8152600401610a6490613ac3565b6001600160a01b0381166000908152610110602052604090205460ff161561177b5760405162461bcd60e51b815260206004820152600860248201526724b99030b236b4b760c11b6044820152606401610a64565b6001600160a01b0316600081815261011060205260408120805460ff19166001908117909155610100805491820181559091527f45e010b9ae401e2eb71529478da8bd513a9bdc2d095a111e324f5b95c09ed87b0180546001600160a01b0319169091179055565b60c9546001600160a01b0316331461180d5760405162461bcd60e51b8152600401610a6490613ac3565b6111d66000612d54565b60975460ff161561183a5760405162461bcd60e51b8152600401610a6490613a76565b60c9546001600160a01b031633146118645760405162461bcd60e51b8152600401610a6490613ac3565b6111d6612da6565b60c9546001600160a01b031633146118965760405162461bcd60e51b8152600401610a6490613ac3565b60ff8190556040518181527f94520f313b1b6f8d796c70aaba10ac238fc06ba46ee7d5bc53c3bbf02c204e089060200160405180910390a150565b60fc80546109b890613be1565b60006118ec60975460ff1690565b156119095760405162461bcd60e51b8152600401610a6490613a76565b33600090815261010e60205260409020548211156119395760405162461bcd60e51b8152600401610a6490613a4a565b33600090815261010e602052604081208054849290611959908490613b9a565b90915550506001600160a01b038316600090815261010e602052604081208054849290611987908490613b43565b90915550506040518281526001600160a01b038416903390600080516020613c8b83398151915290602001610ac2565b60c9546060906001600160a01b031633146119e45760405162461bcd60e51b8152600401610a6490613ac3565b610100548210611a365760405162461bcd60e51b815260206004820152601860248201527f496e707574206f7665722061646d696e73206c656e67746800000000000000006044820152606401610a64565b60006101008381548110611a5a57634e487b7160e01b600052603260045260246000fd5b60009182526020808320909101546001600160a01b031680835261011090915260409091205490915060ff16611ac15760405162461bcd60e51b815260206004820152600c60248201526b2737ba1030b71030b236b4b760a11b6044820152606401610a64565b825b61010054611ad390600190613b9a565b811015611b7c57610100611ae8826001613b43565b81548110611b0657634e487b7160e01b600052603260045260246000fd5b60009182526020909120015461010080546001600160a01b039092169183908110611b4157634e487b7160e01b600052603260045260246000fd5b600091825260209091200180546001600160a01b0319166001600160a01b039290921691909117905580611b7481613c1c565b915050611ac3565b50610100805480611b9d57634e487b7160e01b600052603160045260246000fd5b60008281526020808220830160001990810180546001600160a01b03191690559092019092556001600160a01b03831682526101108152604091829020805460ff1916905561010080548351818402810184019094528084529091830182828015611c3157602002820191906000526020600020905b81546001600160a01b03168152600190910190602001808311611c13575b50505050509150505b919050565b60c9546001600160a01b03163314611c695760405162461bcd60e51b8152600401610a6490613ac3565b610102546001600160a01b0382811691161415611cc85760405162461bcd60e51b815260206004820152601a60248201527f53616d6520776974682070726576696f757320616464726573730000000000006044820152606401610a64565b61010280546001600160a01b0319166001600160a01b0392909216919091179055565b60c9546001600160a01b03163314611d155760405162461bcd60e51b8152600401610a6490613ac3565b61271081611d238486613b43565b611d2d9190613b43565b1115611d735760405162461bcd60e51b81526020600482015260156024820152740546f74616c206d6f7265207468616e20313030303605c1b6044820152606401610a64565b61010583905561010482905561010381905560408051848152602081018490529081018290527ff88fee99c2fbfa2cae1a62d35f81de61f19e20939cd6bfbd2b3bbdb8091acbcf9060600160405180910390a1505050565b600054610100900460ff16611de65760005460ff1615611dea565b303b155b611e4d5760405162461bcd60e51b815260206004820152602e60248201527f496e697469616c697a61626c653a20636f6e747261637420697320616c72656160448201526d191e481a5b9a5d1a585b1a5e995960921b6064820152608401610a64565b600054610100900460ff16158015611e78576000805460ff1961ff0019909116610100171660011790555b61271084611e868585613b43565b611e909190613b43565b1115611ed65760405162461bcd60e51b81526020600482015260156024820152740546f74616c206d6f7265207468616e20313030303605c1b6044820152606401610a64565b6001600160a01b038516611efc5760405162461bcd60e51b8152600401610a6490613aa0565b60408051808201909152600b8082526a282aa929a2902a27a5a2a760a91b6020909201918252611f2e9160fb916135d5565b5060408051808201909152600580825264505552534560d81b6020909201918252611f5b9160fc916135d5565b506bcecb8f27f4200f3a0000000060fd5560fe805460ff191660121790556b295be96e640669720000000060ff5561010180546001600160a01b0387166001600160a01b03199182161790915561010280549091163017905561010384905561010483905561010582905562015180610106554261010c55611fdb612dfe565b611fe3612e35565b611feb612e6c565b60fd546001600160a01b038716600090815261010e6020526040902055612011866122ec565b61201d8660fd54612c70565b801561202f576000805461ff00191690555b505050505050565b60975460ff161561205a5760405162461bcd60e51b8152600401610a6490613a76565b60c9546001600160a01b031633146120845760405162461bcd60e51b8152600401610a6490613ac3565b6001600160a01b0381166120aa5760405162461bcd60e51b8152600401610a6490613aa0565b6001600160a01b0383163014156120dd576120c4816122ec565b6120d86001600160a01b0384168284612989565b6120f1565b6120f16001600160a01b0384168284612989565b505050565b60c9546001600160a01b031633146121205760405162461bcd60e51b8152600401610a6490613ac3565b6001600160a01b0381166000908152610111602052604090205460ff166121835760405162461bcd60e51b81526020600482015260176024820152764e6f6e2077686974656c6973746564204164647265737360481b6044820152606401610a64565b6001600160a01b0316600090815261011160205260409020805460ff19169055565b60c9546001600160a01b031633146121cf5760405162461bcd60e51b8152600401610a6490613ac3565b6001600160a01b0381166122345760405162461bcd60e51b815260206004820152602660248201527f4f776e61626c653a206e6577206f776e657220697320746865207a65726f206160448201526564647265737360d01b6064820152608401610a64565b6110a981612d54565b60c9546001600160a01b031633146122675760405162461bcd60e51b8152600401610a6490613ac3565b6001600160a01b0381166000908152610111602052604090205460ff16156122c75760405162461bcd60e51b815260206004820152601360248201527277686974656c6973746564204164647265737360681b6044820152606401610a64565b6001600160a01b0316600090815261011160205260409020805460ff19166001179055565b6001600160a01b038116600090815261011360205260409020600201546123f857610108546123765760006101065461010c544261232a9190613b9a565b6123349190613b5b565b905061010654816123459190613b7b565b61010c546123539190613b43565b6001600160a01b03831660009081526101136020526040902060020155506123f3565b610108544210156123965760006101065461010c544261232a9190613b9a565b60006101065461010854426123ab9190613b9a565b6123b59190613b5b565b905061010654816123c69190613b7b565b610108546123d49190613b43565b6001600160a01b03831660009081526101136020526040902060020155505b6110a9565b610108544210156125a95761010c546001600160a01b0382166000908152610113602052604090206002015410156124b95760006101065461010c544261243f9190613b9a565b6124499190613b5b565b6001600160a01b038316600090815261010e602052604081205491925090612472908390613b7b565b905061010654826124839190613b7b565b61010c546124919190613b43565b6001600160a01b038416600090815261011360205260409020600281019190915555506123f3565b610106546001600160a01b038216600090815261011360205260408120600201549091906124e79042613b9a565b6124f19190613b5b565b9050600181106125a3576001600160a01b038216600090815261010e6020526040812054612520908390613b7b565b905061010654826125319190613b7b565b6001600160a01b038416600090815261011360205260408120600201805490919061255d908490613b43565b90915550506001600160a01b03831660009081526101136020526040902054612587908290613b43565b6001600160a01b03841660009081526101136020526040902055505b506110a9565b6101085442106110a95761010c546001600160a01b0382166000908152610113602052604090206002015410156126ce5760006101065461010c54610108546125f29190613b9a565b6125fc9190613b5b565b6001600160a01b038316600090815261010e602052604081205491925090612625908390613b7b565b6001600160a01b038416600090815261011360205260408120556101095461010d5461010b5461010a54939450612710936126609086613b7b565b61266a9190613b7b565b612675906064613b7b565b61267f9190613b5b565b6126899190613b5b565b6126939190613b5b565b6001600160a01b0384166000908152610113602052604090206001810191909155610108546002909101556126c7836122ec565b50506110a9565b61010c546001600160a01b038216600090815261011360205260409020600201541080159061271b5750610108546001600160a01b03821660009081526101136020526040902060020154105b1561289c57610106546001600160a01b03821660009081526101136020526040812060020154610108549192916127529190613b9a565b61275c9190613b5b565b90506001811061285d576001600160a01b038216600090815261010e602052604081205461278b908390613b7b565b6001600160a01b03841660009081526101136020526040812054919250906127b4908390613b43565b6001600160a01b038516600090815261011360205260408120556101095461010d5461010b5461010a54939450612710936127ef9086613b7b565b6127f99190613b7b565b612804906064613b7b565b61280e9190613b5b565b6128189190613b5b565b6128229190613b5b565b6001600160a01b038516600090815261011360205260409020600181019190915561010854600290910155612856846122ec565b50506125a3565b6001600160a01b03821660009081526101136020526040812080549190556101095461010d5461010b5461010a54612710939291906126609086613b7b565b610106546001600160a01b038216600090815261011360205260408120600201549091906128ca9042613b9a565b6128d49190613b5b565b9050600181106112c8576001600160a01b038216600090815261010e6020526040812054612903908390613b7b565b905061010654826129149190613b7b565b6001600160a01b0384166000908152610113602052604081206002018054909190612940908490613b43565b90915550506001600160a01b0383166000908152610113602052604090205461296a908290613b43565b6001600160a01b03841660009081526101136020526040902055505050565b604080516001600160a01b038416602482015260448082018490528251808303909101815260649091019091526020810180516001600160e01b031663a9059cbb60e01b1790526120f1908490612ea3565b6129e4826122ec565b6112c8816122ec565b6000808080806129fc87612f75565b91945092509050612a0f86848484613017565b8082612a1b858a613b9a565b612a259190613b9a565b612a2f9190613b9a565b979650505050505050565b7f360894a13ba1a3210667c828492db98dca3e2076cc3735a920a3ca505d382bbc546001600160a01b031690565b60c9546001600160a01b031633146110a95760405162461bcd60e51b8152600401610a6490613ac3565b6000612a9c612a3a565b9050612aa78461320d565b600083511180612ab45750815b15612ac557612ac384846132b2565b505b7f4910fdfa16fed3260ed0e7147f7cc6da11a60208b5b9406d12a635614ffd9143805460ff16612bd657805460ff191660011781556040516001600160a01b0383166024820152612b4490869060440160408051601f198184030181529190526020810180516001600160e01b0316631b2ce7f360e11b1790526132b2565b50805460ff19168155612b55612a3a565b6001600160a01b0316826001600160a01b031614612bcd5760405162461bcd60e51b815260206004820152602f60248201527f45524331393637557067726164653a207570677261646520627265616b73206660448201526e75727468657220757067726164657360881b6064820152608401610a64565b612bd68561339d565b5050505050565b60975460ff16612c265760405162461bcd60e51b815260206004820152601460248201527314185d5cd8589b194e881b9bdd081c185d5cd95960621b6044820152606401610a64565b6097805460ff191690557f5db9ee0a495bf2e6ff9c91a7834c1ba4fdd244a5e8aa4e537bd38aeae4b073aa335b6040516001600160a01b03909116815260200160405180910390a1565b6040518181526001600160a01b038316906000907fab8530f87dc9b59234c4623bf917212bb2536d647574c8e7e5da92c2ede0c9f89060200160405180910390a36040518181526001600160a01b03831690600090600080516020613c8b833981519152906020015b60405180910390a35050565b816001600160a01b03167fcc16f5dbb4873280815c1ee09dbd06736cffcc184412cf7a71a0fdb75d397ca582604051612d2091815260200190565b60405180910390a26040518181526000906001600160a01b03841690600080516020613c8b83398151915290602001612cd9565b60c980546001600160a01b038381166001600160a01b0319831681179093556040519116919082907f8be0079c531659141344cd1fd0a4f28419497f9722a3daafe3b4186f6b6457e090600090a35050565b60975460ff1615612dc95760405162461bcd60e51b8152600401610a6490613a76565b6097805460ff191660011790557f62e78cea01bee320cd4e420270b5ea74000d11b0c9f74754ebdbfc544b05a258612c533390565b600054610100900460ff16612e255760405162461bcd60e51b8152600401610a6490613af8565b612e2d6133dd565b6111d6613404565b600054610100900460ff16612e5c5760405162461bcd60e51b8152600401610a6490613af8565b612e646133dd565b6111d6613437565b600054610100900460ff16612e935760405162461bcd60e51b8152600401610a6490613af8565b612e9b6133dd565b6111d66133dd565b6000612ef8826040518060400160405280602081526020017f5361666545524332303a206c6f772d6c6576656c2063616c6c206661696c6564815250856001600160a01b03166134679092919063ffffffff16565b8051909150156120f15780806020019051810190612f169190613879565b6120f15760405162461bcd60e51b815260206004820152602a60248201527f5361666545524332303a204552433230206f7065726174696f6e20646964206e6044820152691bdd081cdd58d8d9595960b21b6064820152608401610a64565b6000806000806000905060008060ff5460fd54111561300a576127106101035488612fa09190613b7b565b612faa9190613b5b565b92506127106101045488612fbe9190613b7b565b612fc89190613b5b565b91506127106101055488612fdc9190613b7b565b612fe69190613b5b565b9050600060ff5460fd54612ffa9190613b9a565b905080841115613008578093505b505b9196909550909350915050565b6001600160a01b03841661303d5760405162461bcd60e51b8152600401610a6490613aa0565b6001600160a01b038416600090815261010e602052604081205490826130638587613b43565b61306d9190613b43565b90508082101561308f5760405162461bcd60e51b8152600401610a6490613a4a565b6001600160a01b038616600090815261010e6020526040812080548792906130b8908490613b9a565b90915550506001600160a01b038616600090815261010e6020526040812080548692906130e6908490613b9a565b90915550506001600160a01b038616600090815261010e602052604081208054859290613114908490613b9a565b925050819055508460fd600082825461312d9190613b9a565b9091555050610101546001600160a01b0316600090815261010e60205260408120805486929061315e908490613b43565b9091555050610102546001600160a01b0316600090815261010e60205260408120805485929061318f908490613b43565b9091555061319f90508686612ce5565b610101546040518581526001600160a01b03909116903390600080516020613c8b8339815191529060200160405180910390a3610102546040518481526001600160a01b03909116903390600080516020613c8b8339815191529060200160405180910390a3505050505050565b803b6132715760405162461bcd60e51b815260206004820152602d60248201527f455243313936373a206e657720696d706c656d656e746174696f6e206973206e60448201526c1bdd08184818dbdb9d1c9858dd609a1b6064820152608401610a64565b7f360894a13ba1a3210667c828492db98dca3e2076cc3735a920a3ca505d382bbc80546001600160a01b0319166001600160a01b0392909216919091179055565b6060823b6133115760405162461bcd60e51b815260206004820152602660248201527f416464726573733a2064656c65676174652063616c6c20746f206e6f6e2d636f6044820152651b9d1c9858dd60d21b6064820152608401610a64565b600080846001600160a01b03168460405161332c9190613916565b600060405180830381855af49150503d8060008114613367576040519150601f19603f3d011682016040523d82523d6000602084013e61336c565b606091505b50915091506133948282604051806060016040528060278152602001613c646027913961347e565b95945050505050565b6133a68161320d565b6040516001600160a01b038216907fbc7cd75a20ee27fd9adebab32041f755214dbc6bffa90cc0225b39da2e5c2d3b90600090a250565b600054610100900460ff166111d65760405162461bcd60e51b8152600401610a6490613af8565b600054610100900460ff1661342b5760405162461bcd60e51b8152600401610a6490613af8565b6097805460ff19169055565b600054610100900460ff1661345e5760405162461bcd60e51b8152600401610a6490613af8565b6111d633612d54565b606061347684846000856134b7565b949350505050565b6060831561348d575081610f30565b82511561349d5782518084602001fd5b8160405162461bcd60e51b8152600401610a64919061397f565b606030318311156135195760405162461bcd60e51b815260206004820152602660248201527f416464726573733a20696e73756666696369656e742062616c616e636520666f6044820152651c8818d85b1b60d21b6064820152608401610a64565b843b6135675760405162461bcd60e51b815260206004820152601d60248201527f416464726573733a2063616c6c20746f206e6f6e2d636f6e74726163740000006044820152606401610a64565b600080866001600160a01b031685876040516135839190613916565b60006040518083038185875af1925050503d80600081146135c0576040519150601f19603f3d011682016040523d82523d6000602084013e6135c5565b606091505b5091509150612a2f82828661347e565b8280546135e190613be1565b90600052602060002090601f0160209004810192826136035760008555613649565b82601f1061361c57805160ff1916838001178555613649565b82800160010185558215613649579182015b8281111561364957825182559160200191906001019061362e565b50613655929150613659565b5090565b5b80821115613655576000815560010161365a565b80356001600160a01b0381168114611c3a57600080fd5b600060208284031215613696578081fd5b610f308261366e565b600080604083850312156136b1578081fd5b6136ba8361366e565b91506136c86020840161366e565b90509250929050565b6000806000606084860312156136e5578081fd5b6136ee8461366e565b92506136fc6020850161366e565b9150604084013590509250925092565b600080600080600060a08688031215613723578081fd5b61372c8661366e565b945061373a6020870161366e565b94979496505050506040830135926060810135926080909101359150565b6000806040838503121561376a578182fd5b6137738361366e565b9150602083013567ffffffffffffffff8082111561378f578283fd5b818501915085601f8301126137a2578283fd5b8135818111156137b4576137b4613c4d565b604051601f8201601f19908116603f011681019083821181831017156137dc576137dc613c4d565b816040528281528860208487010111156137f4578586fd5b82602086016020830137856020848301015280955050505050509250929050565b60008060408385031215613827578182fd5b6138308361366e565b946020939093013593505050565b600080600060608486031215613852578283fd5b61385b8461366e565b9250602084013591506138706040850161366e565b90509250925092565b60006020828403121561388a578081fd5b81518015158114610f30578182fd5b6000602082840312156138aa578081fd5b5035919050565b6000806000606084860312156138c5578283fd5b505081359360208301359350604090920135919050565b600080600080600060a086880312156138f3578081fd5b505083359560208501359550604085013594606081013594506080013592509050565b60008251613928818460208701613bb1565b9190910192915050565b6020808252825182820181905260009190848201906040850190845b818110156139735783516001600160a01b03168352928401929184019160010161394e565b50909695505050505050565b600060208252825180602084015261399e816040850160208701613bb1565b601f01601f19169190910160400192915050565b6020808252602c908201527f46756e6374696f6e206d7573742062652063616c6c6564207468726f7567682060408201526b19195b1959d85d1958d85b1b60a21b606082015260800190565b6020808252602c908201527f46756e6374696f6e206d7573742062652063616c6c6564207468726f7567682060408201526b6163746976652070726f787960a01b606082015260800190565b6020808252601290820152714e6f7420656e6f7567682062616c616e636560701b604082015260600190565b60208082526010908201526f14185d5cd8589b194e881c185d5cd95960821b604082015260600190565b60208082526009908201526830206164647265737360b81b604082015260600190565b6020808252818101527f4f776e61626c653a2063616c6c6572206973206e6f7420746865206f776e6572604082015260600190565b6020808252602b908201527f496e697469616c697a61626c653a20636f6e7472616374206973206e6f74206960408201526a6e697469616c697a696e6760a81b606082015260800190565b60008219821115613b5657613b56613c37565b500190565b600082613b7657634e487b7160e01b81526012600452602481fd5b500490565b6000816000190483118215151615613b9557613b95613c37565b500290565b600082821015613bac57613bac613c37565b500390565b60005b83811015613bcc578181015183820152602001613bb4565b83811115613bdb576000848401525b50505050565b600281046001821680613bf557607f821691505b60208210811415613c1657634e487b7160e01b600052602260045260246000fd5b50919050565b6000600019821415613c3057613c30613c37565b5060010190565b634e487b7160e01b600052601160045260246000fd5b634e487b7160e01b600052604160045260246000fdfe416464726573733a206c6f772d6c6576656c2064656c65676174652063616c6c206661696c6564ddf252ad1be2c89b69c2b068fc378daa952ba7f163c4a11628f55a4df523b3efa2646970667358221220aa17f82997318e07d9b2562f21afee941477872dfe3e8111a26092cdc2f8e7d564736f6c63430008020033",
  "immutableReferences": {
    "641": [
      {
        "length": 32,
        "start": 4078
      },
      {
        "length": 32,
        "start": 4142
      },
      {
        "length": 32,
        "start": 5713
      },
      {
        "length": 32,
        "start": 5777
      }
    ]
  },
  "source": "// SPDX-License-Identifier: MIT\r\n\r\npragma solidity ^0.8.0;\r\n\r\nimport \"@openzeppelin/contracts-upgradeable/proxy/utils/Initializable.sol\";\r\nimport \"@openzeppelin/contracts-upgradeable/proxy/utils/UUPSUpgradeable.sol\";\r\nimport \"@openzeppelin/contracts-upgradeable/security/PausableUpgradeable.sol\";\r\nimport \"@openzeppelin/contracts-upgradeable/access/OwnableUpgradeable.sol\";\r\nimport \"@openzeppelin/contracts-upgradeable/token/ERC20/IERC20Upgradeable.sol\";\r\nimport \"@openzeppelin/contracts-upgradeable/token/ERC20/utils/SafeERC20Upgradeable.sol\";\r\n\r\n\r\ncontract PurseTokenUpgradable is Initializable, UUPSUpgradeable, PausableUpgradeable, OwnableUpgradeable {\r\n\r\n    using SafeERC20Upgradeable for IERC20Upgradeable;\r\n\r\n    string public name;\r\n    string public symbol;\r\n    uint256 public totalSupply;\r\n    uint8 public decimals;\r\n    uint256 public minimumSupply;\r\n    address[] public admins;\r\n    address public liqPool;\r\n    address public disPool;\r\n    uint256 public burnPercent;\r\n    uint256 public liqPercent;\r\n    uint256 public disPercent;\r\n\r\n    uint256 public _averageInterval;\r\n    uint256 public _getRewardEndTime;\r\n    uint256 public _getRewardStartTime;\r\n    uint256 public _numOfDaysPerMth;\r\n    uint256 public _monthlyDistributePr;\r\n    uint256 public _percentageDistribute;\r\n    uint256 public _lastRewardStartTime;\r\n    uint256 public _totalSupply;\r\n\r\n    mapping(address => uint256) public balanceOf;\r\n    mapping(address => mapping(address => uint256)) public allowance;\r\n    mapping(address => bool) public isAdmin;\r\n    mapping(address => bool) public isWhitelistedTo;\r\n    mapping(address => bool) public isWhitelistedFrom;\r\n    mapping(address => AccAmount) public accAmount;\r\n\r\n    struct AccAmount {\r\n        uint256 amount;\r\n        uint256 accReward;\r\n        uint256 lastUpdateTime;\r\n    }\r\n\r\n    event Transfer(address indexed _from, address indexed _to, uint256 _value);\r\n    event Burn(address indexed _from, uint256 _value);\r\n    event Mint(address indexed _from, address indexed _to, uint256 _value);\r\n    event Approval(address indexed _owner, address indexed _spender, uint256 _value);\r\n    event UpdatePercent(uint256 _newDisPercent,  uint256 _newLiqPercent, uint256 _newBurnPercent);\r\n    event UpdateMinSupply(uint256 _newMinimumSupply);\r\n\r\n    modifier onlyAdmin() {\r\n        require(isAdmin[msg.sender], \"Not Admin\");\r\n        _;\r\n    }\r\n\r\n    \r\n\r\n    function transfer(address _to, uint256 _value) external whenNotPaused returns (bool success)\r\n    {\r\n        require(balanceOf[msg.sender] >= _value,\"Not enough balance\");\r\n        balanceOf[msg.sender] -= _value;\r\n        balanceOf[_to] += _value;\r\n        emit Transfer(msg.sender, _to, _value);\r\n        return true;\r\n    }\r\n\r\n    function approve(address _spender, uint256 _value) external whenNotPaused returns (bool success)\r\n    {\r\n        allowance[msg.sender][_spender] = _value;\r\n        emit Approval(msg.sender, _spender, _value);\r\n        return true;\r\n    }\r\n\r\n    function transferFrom(address _from, address _to, uint256 _value) external whenNotPaused returns (bool success) {\r\n        require(_value <= balanceOf[_from], \"Not enough balance\");\r\n        require(_value <= allowance[_from][msg.sender], \"Not enough allowance\");\r\n        if (isWhitelistedTo[_to] || isWhitelistedFrom[msg.sender]) {\r\n            allowance[_from][msg.sender] -= _value;\r\n            updateAccumulateBalanceTransaction(_from, _to);\r\n            balanceOf[_from] -= _value;\r\n            balanceOf[_to] += _value;\r\n\r\n            emit Transfer(_from, _to, _value);\r\n            return true;\r\n        }\r\n        else {\r\n            allowance[_from][msg.sender] -= _value;\r\n            updateAccumulateBalanceTransaction(_from, _to);\r\n            uint256 transferValue = _partialBurn(_value, _from);\r\n            balanceOf[_from] -= transferValue;\r\n            balanceOf[_to] += transferValue;\r\n\r\n            emit Transfer(_from, _to, transferValue);\r\n            return true;\r\n        }\r\n    }\r\n\r\n    function mint(address _account, uint256 _amount) external whenNotPaused onlyAdmin {\r\n        require(_account != address(0), \"0 address\");\r\n        updateAccumulateBalance(_account);\r\n        balanceOf[_account] += _amount;\r\n\r\n        totalSupply += _amount;\r\n\r\n        mintEvent(_account, _amount);\r\n    }\r\n\r\n    function burn(uint256 _amount) external whenNotPaused {\r\n        require(_amount != 0, \"0 address\");\r\n        require(balanceOf[msg.sender] >= _amount, \"Not enough balance\");\r\n        updateAccumulateBalance(msg.sender);\r\n        balanceOf[msg.sender] -= _amount;\r\n        totalSupply -= _amount;\r\n\r\n        burnEvent(msg.sender, _amount);\r\n    }\r\n\r\n    function updateAccumulateBalance(address _holder) private {\r\n        if (accAmount[_holder].lastUpdateTime == 0) {\r\n            if (_getRewardStartTime == 0) {\r\n                uint256 interval = (block.timestamp - _lastRewardStartTime) / _averageInterval;\r\n                accAmount[_holder].lastUpdateTime = _lastRewardStartTime + (interval * _averageInterval);\r\n            } else {\r\n                if (block.timestamp < _getRewardStartTime) {\r\n                    uint256 interval = (block.timestamp - _lastRewardStartTime) / _averageInterval;\r\n                    accAmount[_holder].lastUpdateTime = _lastRewardStartTime + (interval * _averageInterval);\r\n                } else {\r\n                    uint256 interval = (block.timestamp - _getRewardStartTime) / _averageInterval;\r\n                    accAmount[_holder].lastUpdateTime = _getRewardStartTime + (interval * _averageInterval);\r\n                }\r\n            }\r\n        }\r\n        else if (block.timestamp < _getRewardStartTime) {\r\n            if (accAmount[_holder].lastUpdateTime < _lastRewardStartTime) {\r\n                uint256 interval = (block.timestamp - _lastRewardStartTime) / _averageInterval;\r\n                uint256 accumulateAmount = balanceOf[_holder] * interval;\r\n                accAmount[_holder].lastUpdateTime = _lastRewardStartTime + (interval * _averageInterval);\r\n                accAmount[_holder].amount = accumulateAmount;\r\n            }\r\n            else {\r\n                uint256 interval = (block.timestamp - accAmount[_holder].lastUpdateTime) / _averageInterval;\r\n                if (interval >= 1) {\r\n                    uint256 accumulateAmount = balanceOf[_holder] * interval;\r\n                    accAmount[_holder].lastUpdateTime += (interval * _averageInterval);\r\n                    accAmount[_holder].amount = accAmount[_holder].amount + accumulateAmount;\r\n                }\r\n            }\r\n        }\r\n        else if (block.timestamp >= _getRewardStartTime) {\r\n            if (accAmount[_holder].lastUpdateTime < _lastRewardStartTime) {\r\n                uint256 interval = (_getRewardStartTime - _lastRewardStartTime) / _averageInterval;\r\n                uint256 lastmonthAccAmount = balanceOf[_holder] * interval;\r\n                accAmount[_holder].amount = 0;\r\n                accAmount[_holder].accReward = lastmonthAccAmount * _monthlyDistributePr * _percentageDistribute * 100 / _totalSupply / _numOfDaysPerMth / 10000;\r\n                accAmount[_holder].lastUpdateTime = _getRewardStartTime;\r\n                updateAccumulateBalance(_holder);\r\n            }\r\n            else if (accAmount[_holder].lastUpdateTime >= _lastRewardStartTime && accAmount[_holder].lastUpdateTime < _getRewardStartTime) {\r\n                uint256 interval = (_getRewardStartTime - accAmount[_holder].lastUpdateTime) / _averageInterval;\r\n                if (interval >= 1) {\r\n                    uint256 accumulateAmount = balanceOf[_holder] * interval;\r\n                    uint256 lastmonthAccAmount = accAmount[_holder].amount + accumulateAmount;\r\n                    accAmount[_holder].amount = 0;\r\n                    accAmount[_holder].accReward = lastmonthAccAmount * _monthlyDistributePr * _percentageDistribute * 100 / _totalSupply / _numOfDaysPerMth / 10000;\r\n                    accAmount[_holder].lastUpdateTime = _getRewardStartTime;\r\n                    updateAccumulateBalance(_holder);\r\n                }\r\n                else {\r\n                    uint256 lastmonthAccAmount = accAmount[_holder].amount;\r\n                    accAmount[_holder].amount = 0;\r\n                    accAmount[_holder].accReward = lastmonthAccAmount * _monthlyDistributePr * _percentageDistribute * 100 / _totalSupply / _numOfDaysPerMth / 10000;\r\n                    accAmount[_holder].lastUpdateTime = _getRewardStartTime;\r\n                    updateAccumulateBalance(_holder);\r\n                }\r\n            }\r\n            else {\r\n                uint256 interval = (block.timestamp - accAmount[_holder].lastUpdateTime) / _averageInterval;\r\n                if (interval >= 1) {\r\n                    uint256 accumulateAmount = balanceOf[_holder] * interval;\r\n                    accAmount[_holder].lastUpdateTime += (interval * _averageInterval);\r\n                    accAmount[_holder].amount = accAmount[_holder].amount + accumulateAmount;\r\n                }\r\n            }\r\n        }\r\n    }\r\n\r\n\r\n    function updateAccumulateBalanceTransaction(address _from, address _to) private {\r\n        updateAccumulateBalance(_from);\r\n        updateAccumulateBalance(_to);\r\n    }\r\n\r\n    function claimDistributionPurse() external whenNotPaused returns (bool success) {\r\n        require(block.timestamp > _getRewardStartTime, \"Claim not started\");\r\n        require(block.timestamp < _getRewardEndTime, \"Claim period over\");\r\n\r\n        updateAccumulateBalance(msg.sender);\r\n        require(accAmount[msg.sender].accReward > 0, \"User reward is 0\");\r\n        uint256 claimAmount = accAmount[msg.sender].accReward;\r\n        accAmount[msg.sender].accReward = 0;\r\n\r\n        IERC20Upgradeable(disPool).safeTransfer(msg.sender, claimAmount);\r\n        return true;\r\n    }\r\n\r\n    function activateClaimMonthly(uint256 _rewardStartTime, uint256 _rewardEndTime, uint256 _monthlyDisPr, uint256 _numOfDays, uint256 _percentage) external onlyAdmin {\r\n        require(_rewardStartTime > block.timestamp, \"Less than current time\");\r\n        require(_rewardEndTime > _rewardStartTime, \"Less than start time\");\r\n        require(_numOfDays > 0, \"Less than 0\");\r\n        require(_percentage > 0 && _percentage <= 100, \"Less than 0 or More than 100\");\r\n        require(_monthlyDisPr <= balanceOf[address(this)], \"More than pool balance\");\r\n\r\n        _totalSupply = totalSupply;\r\n        if (_getRewardStartTime != 0) {\r\n            _lastRewardStartTime = _getRewardStartTime;\r\n        }\r\n        _numOfDaysPerMth = _numOfDays;\r\n        _getRewardStartTime = _rewardStartTime;\r\n        _getRewardEndTime = _rewardEndTime;\r\n        _percentageDistribute = _percentage;\r\n        _monthlyDistributePr = _monthlyDisPr;\r\n    }\r\n\r\n    function _partialBurn(uint256 _amount, address _from) internal returns (uint256) {\r\n        uint256 transferAmount = 0;\r\n        uint256 burnAmount;\r\n        uint256 liqAmount;\r\n        uint256 disAmount;\r\n        (\r\n        burnAmount,\r\n        liqAmount,\r\n        disAmount\r\n        ) = _calculateDeductAmount(_amount);\r\n\r\n        burnPrivate(_from, burnAmount, liqAmount, disAmount);\r\n\r\n        transferAmount = _amount - burnAmount - liqAmount - disAmount;\r\n\r\n        return transferAmount;\r\n    }\r\n\r\n    function _calculateDeductAmount(uint256 _amount) internal view returns (uint256, uint256, uint256) {\r\n        uint256 burnAmount = 0;\r\n        uint256 liqAmount = 0;\r\n        uint256 disAmount = 0;\r\n\r\n        if (totalSupply > minimumSupply) {\r\n            burnAmount = (_amount * burnPercent) / 10000;\r\n            liqAmount = (_amount * liqPercent) / 10000;\r\n            disAmount = (_amount * disPercent) / 10000;\r\n            uint256 availableBurn = totalSupply - minimumSupply;\r\n            if (burnAmount > availableBurn) {\r\n                burnAmount = availableBurn;\r\n            }\r\n        }\r\n        return (burnAmount, liqAmount, disAmount);\r\n    }\r\n\r\n    function burnPrivate(address _account, uint256 _burnAmount, uint256 _liqAmount, uint256 _disAmount) private {\r\n        require(_account != address(0), \"0 address\");\r\n        uint256 accountBalance = balanceOf[_account];\r\n        uint256 deductAmount = _burnAmount + _liqAmount + _disAmount;\r\n        require(accountBalance >= deductAmount, \"Not enough balance\");\r\n        balanceOf[_account] -= _burnAmount;\r\n        balanceOf[_account] -= _liqAmount;\r\n        balanceOf[_account] -= _disAmount;\r\n\r\n        totalSupply -= _burnAmount;\r\n        balanceOf[liqPool] += _liqAmount;\r\n        balanceOf[disPool] += _disAmount;\r\n\r\n        burnEvent(_account, _burnAmount);\r\n        emit Transfer(msg.sender, liqPool, _liqAmount);\r\n        emit Transfer(msg.sender, disPool, _disAmount);\r\n    }\r\n\r\n    function updateLPoolAdd(address _newLPool) external onlyOwner {\r\n        require(_newLPool != liqPool, \"Same with previous address\");\r\n\r\n        liqPool = _newLPool;\r\n    }\r\n\r\n    function updateDPoolAdd(address _newDPool) external onlyOwner {\r\n        require(_newDPool != disPool, \"Same with previous address\");\r\n\r\n        disPool = _newDPool;\r\n    }\r\n\r\n    function updatePercent(uint256 _newDisPercent, uint256 _newLiqPercent, uint256 _newBurnPercent) external onlyOwner {\r\n        require(_newDisPercent + _newLiqPercent + _newBurnPercent <= 10000, \"Total more than 10000\");\r\n\r\n        disPercent = _newDisPercent;\r\n        liqPercent = _newLiqPercent;\r\n        burnPercent = _newBurnPercent;\r\n\r\n        emit UpdatePercent(disPercent, liqPercent, burnPercent);\r\n    }\r\n\r\n    function updateMinimumSupply(uint256 _minimumSupply) external onlyOwner {\r\n        minimumSupply = _minimumSupply;\r\n\r\n        emit UpdateMinSupply(minimumSupply);\r\n    }\r\n\r\n    function addAdmin(address newAdmin) external onlyOwner {\r\n        require(!isAdmin[newAdmin], \"Is admin\");\r\n\r\n        isAdmin[newAdmin] = true;\r\n        admins.push(newAdmin);\r\n    }\r\n\r\n    function removeAdmin(uint index) external onlyOwner returns (address[] memory){\r\n        require(index < admins.length, \"Input over admins length\");\r\n        address removeOwner = admins[index];\r\n        require(isAdmin[removeOwner], \"Not an admin\");\r\n\r\n        for (uint i = index; i < admins.length - 1; i++) {\r\n            admins[i] = admins[i + 1];\r\n        }\r\n        admins.pop();\r\n\r\n        isAdmin[removeOwner] = false;\r\n        return admins;\r\n    }\r\n\r\n    function transferERCToken(address token, uint256 amount, address _to) public whenNotPaused onlyOwner {\r\n        require(_to != address(0), \"0 address\");\r\n        if (token == address(this)) {\r\n            updateAccumulateBalance(_to);\r\n            IERC20Upgradeable(token).safeTransfer(_to, amount);\r\n        } else {\r\n            IERC20Upgradeable(token).safeTransfer(_to, amount);\r\n        }\r\n    }\r\n\r\n    function pause() external whenNotPaused onlyOwner {\r\n        _pause();\r\n    }\r\n\r\n    function unpause() external whenPaused onlyOwner {\r\n        _unpause();\r\n    }\r\n\r\n    function setWhitelistedTo(address newWhitelist) external onlyOwner {\r\n        require(!isWhitelistedTo[newWhitelist], \"whitelisted Address\");\r\n\r\n        isWhitelistedTo[newWhitelist] = true;\r\n    }\r\n\r\n    function removeWhitelistedTo(address newWhitelist) external onlyOwner {\r\n        require(isWhitelistedTo[newWhitelist], \"Non whitelisted Address\");\r\n\r\n        isWhitelistedTo[newWhitelist] = false;\r\n    }\r\n\r\n    function setWhitelistedFrom(address newWhitelist) external onlyOwner {\r\n        require(!isWhitelistedFrom[newWhitelist], \"whitelisted Address\");\r\n\r\n        isWhitelistedFrom[newWhitelist] = true;\r\n    }\r\n\r\n    function removeWhitelistedFrom(address newWhitelist) external onlyOwner {\r\n        require(isWhitelistedFrom[newWhitelist], \"Non whitelisted Address\");\r\n\r\n        isWhitelistedFrom[newWhitelist] = false;\r\n    }\r\n\r\n    function _authorizeUpgrade(address) internal override onlyOwner {}\r\n\r\n    function mintEvent(address to, uint256 amount) internal {\r\n        emit Mint(address(0), to, amount);\r\n        emit Transfer(address(0), to, amount);\r\n    }\r\n\r\n    function burnEvent(address from, uint256 amount) internal {\r\n        emit Burn(from, amount);\r\n        emit Transfer(from, address(0), amount);\r\n    }\r\n\r\n    function initialize(\r\n        address _to,\r\n        address _lPool,\r\n        uint256 _burnPercent,\r\n        uint256 _liqPercent,\r\n        uint256 _disPercent\r\n    ) public initializer {\r\n        require(_disPercent + _liqPercent + _burnPercent <= 10000, \"Total more than 10000\");\r\n        require(_lPool != address(0), \"0 address\");\r\n\r\n        name = \"PURSE TOKEN\";\r\n        symbol = \"PURSE\";\r\n        totalSupply = 64_000_000_000 * (10 ** 18);\r\n        decimals = 18;\r\n        minimumSupply = 12_800_000_000 * (10 ** 18);\r\n\r\n        liqPool = _lPool;\r\n        disPool = address(this);\r\n        burnPercent = _burnPercent;\r\n        liqPercent = _liqPercent;\r\n        disPercent = _disPercent;\r\n        _averageInterval = 1 days;\r\n        _lastRewardStartTime = block.timestamp;\r\n        __Pausable_init();\r\n        __Ownable_init();\r\n        __UUPSUpgradeable_init();\r\n\r\n        balanceOf[_to] = totalSupply;\r\n        updateAccumulateBalance(_to);\r\n\r\n        mintEvent(_to, totalSupply);\r\n    }\r\n}",
  "sourcePath": "C:\\Users\\WorkKing\\PXdev\\december\\Dapp\\CoinMatch\\MatchingGame\\src\\contracts\\PurseTokenUpgradable.sol",
  "compiler": {
    "name": "solc",
    "version": "0.8.2+commit.661d1103.Emscripten.clang"
  },
  "schemaVersion": "3.4.3",
  "updatedAt": "2022-01-22T13:55:38.485Z",
  "devdoc": {
    "kind": "dev",
    "methods": {
      "owner()": {
        "details": "Returns the address of the current owner."
      },
      "paused()": {
        "details": "Returns true if the contract is paused, and false otherwise."
      },
      "renounceOwnership()": {
        "details": "Leaves the contract without owner. It will not be possible to call `onlyOwner` functions anymore. Can only be called by the current owner. NOTE: Renouncing ownership will leave the contract without an owner, thereby removing any functionality that is only available to the owner."
      },
      "transferOwnership(address)": {
        "details": "Transfers ownership of the contract to a new account (`newOwner`). Can only be called by the current owner."
      },
      "upgradeTo(address)": {
        "details": "Upgrade the implementation of the proxy to `newImplementation`. Calls {_authorizeUpgrade}. Emits an {Upgraded} event."
      },
      "upgradeToAndCall(address,bytes)": {
        "details": "Upgrade the implementation of the proxy to `newImplementation`, and subsequently execute the function call encoded in `data`. Calls {_authorizeUpgrade}. Emits an {Upgraded} event."
      }
    },
    "version": 1
  },
  "userdoc": {
    "kind": "user",
    "methods": {},
    "version": 1
  }
}