{
  "contractName": "Ranking",
  "abi": [
    {
      "inputs": [],
      "stateMutability": "nonpayable",
      "type": "constructor"
    },
    {
      "anonymous": false,
      "inputs": [
        {
          "indexed": true,
          "internalType": "address",
          "name": "player",
          "type": "address"
        },
        {
          "indexed": true,
          "internalType": "uint256",
          "name": "amount",
          "type": "uint256"
        }
      ],
      "name": "PlayerRank",
      "type": "event"
    },
    {
      "inputs": [],
      "name": "playerIndex",
      "outputs": [
        {
          "internalType": "uint256",
          "name": "",
          "type": "uint256"
        }
      ],
      "stateMutability": "view",
      "type": "function",
      "constant": true
    },
    {
      "inputs": [
        {
          "internalType": "uint256",
          "name": "",
          "type": "uint256"
        }
      ],
      "name": "players",
      "outputs": [
        {
          "internalType": "address",
          "name": "",
          "type": "address"
        }
      ],
      "stateMutability": "view",
      "type": "function",
      "constant": true
    },
    {
      "inputs": [
        {
          "internalType": "address",
          "name": "",
          "type": "address"
        }
      ],
      "name": "score",
      "outputs": [
        {
          "internalType": "address",
          "name": "plaYer",
          "type": "address"
        },
        {
          "internalType": "uint256",
          "name": "score",
          "type": "uint256"
        }
      ],
      "stateMutability": "view",
      "type": "function",
      "constant": true
    },
    {
      "inputs": [
        {
          "internalType": "uint256",
          "name": "amount",
          "type": "uint256"
        }
      ],
      "name": "completeGame",
      "outputs": [],
      "stateMutability": "nonpayable",
      "type": "function"
    }
  ],
  "bytecode": "0x608060405234801561001057600080fd5b50600080546001600160a01b03191633179055610342806100326000396000f3fe608060405234801561001057600080fd5b506004361061004c5760003560e01c80633ac3f52414610051578063776f38431461006f578063bf51d8c814610090578063f71d96cb146100a5575b600080fd5b6100596100c5565b60405161006691906102df565b60405180910390f35b61008261007d36600461026c565b6100cb565b6040516100669291906102c6565b6100a361009e36600461029a565b6100f0565b005b6100b86100b336600461029a565b6100ff565b60405161006691906102b2565b60025481565b600560205260009081526040902080546001909101546001600160a01b039091169082565b806100fb3382610129565b5050565b6001818154811061010f57600080fd5b6000918252602090912001546001600160a01b0316905081565b6001600160a01b0382166000908152600560205260409020600101546101f1576001805480820182557fb10e2d527612073b26eecdfd717e6a320cf44b4afac2b0732d9fcbe2b7fa0cf60180546001600160a01b0385166001600160a01b03199182168117909255600082815260056020526040812080549092169092179055600280549091906101bb9084906102e8565b90915550506001600160a01b038216600090815260056020526040812060010180548392906101eb9084906102e8565b90915550505b6001600160a01b0382166000908152600560205260409020600101548111610232576001600160a01b03821660009081526005602052604090206001018190555b60405181906001600160a01b038416907f457118cf0f9809c27c00875bbea9023971e68954ef9cb2a87a67362fa4dd75c890600090a35050565b60006020828403121561027d578081fd5b81356001600160a01b0381168114610293578182fd5b9392505050565b6000602082840312156102ab578081fd5b5035919050565b6001600160a01b0391909116815260200190565b6001600160a01b03929092168252602082015260400190565b90815260200190565b6000821982111561030757634e487b7160e01b81526011600452602481fd5b50019056fea2646970667358221220e05b55c171001175c67aea3c535fc56c1f4d8b1d1a9fa7dbe124cd61a9d9c25964736f6c63430008000033",
  "immutableReferences": {},
  "source": "pragma solidity ^0.8.0; \r\n\r\ncontract Ranking {\r\n    address _owner;\r\n    \r\n    address[] public players;\r\n    uint256 public playerIndex;\r\n\r\n    event PlayerRank(address indexed player, uint256 indexed amount);\r\n\r\n    uint256 move;\r\n    uint256 lastMoveBlock;\r\n\r\n    mapping(address=> playerInfo) public score;\r\n\r\n    struct playerInfo {\r\n        address plaYer;\r\n        uint256 score;\r\n    }\r\n\r\n    modifier onlyOwner() {\r\n        require(msg.sender == _owner);\r\n        _;\r\n    }\r\n\r\n    constructor() {\r\n        _owner = msg.sender;\r\n        // lastMoveBlock = block.number;\r\n    }\r\n    \r\n    function completeGame(uint256 amount) public {\r\n        uint x = amount;\r\n        addRanking(msg.sender, x);\r\n    }\r\n\r\n    function addRanking(address player, uint256 amount) internal {\r\n        if(score[player].score == 0) {\r\n            players.push(player);\r\n            score[player].plaYer = player;\r\n            playerIndex +=1; \r\n            score[player].score += amount;\r\n        } \r\n        if (amount <= score[player].score) {\r\n        score[player].score = amount;\r\n        }\r\n\r\n        emit PlayerRank(player, amount);\r\n    }\r\n\r\n    // function Move() public {\r\n    //     require(getRank(), \"Complete the game\");\r\n\r\n    //     lastMoveBlock = block.number;\r\n\r\n    //     addRanking(msg.sender, move);\r\n    // }\r\n\r\n    // function getRank() public {\r\n    //     require(!score == 0, \"You did not start the game\");\r\n\r\n\r\n    // }\r\n}",
  "sourcePath": "C:\\Users\\WorkKing\\PXdev\\december\\Dapp\\Memory\\src\\contracts\\Ranking.sol",
  "compiler": {
    "name": "solc",
    "version": "0.8.0+commit.c7dfd78e.Emscripten.clang"
  },
  "schemaVersion": "3.4.3",
  "updatedAt": "2021-12-15T09:54:32.470Z",
  "networkType": "ethereum",
  "devdoc": {
    "kind": "dev",
    "methods": {},
    "version": 1
  },
  "userdoc": {
    "kind": "user",
    "methods": {},
    "version": 1
  }
}