{
  "contractName": "Ranking",
  "abi": [
    {
      "inputs": [
        {
          "internalType": "contract Token",
          "name": "_token",
          "type": "address"
        }
      ],
      "stateMutability": "nonpayable",
      "type": "constructor"
    },
    {
      "anonymous": false,
      "inputs": [
        {
          "indexed": true,
          "internalType": "address",
          "name": "player",
          "type": "address"
        },
        {
          "indexed": true,
          "internalType": "uint256",
          "name": "amount",
          "type": "uint256"
        },
        {
          "indexed": true,
          "internalType": "uint256",
          "name": "multi",
          "type": "uint256"
        }
      ],
      "name": "PlayerRank",
      "type": "event"
    },
    {
      "anonymous": false,
      "inputs": [
        {
          "indexed": true,
          "internalType": "address",
          "name": "player",
          "type": "address"
        },
        {
          "indexed": true,
          "internalType": "uint256",
          "name": "amount",
          "type": "uint256"
        },
        {
          "indexed": false,
          "internalType": "uint256",
          "name": "multi",
          "type": "uint256"
        }
      ],
      "name": "Scoredeclare",
      "type": "event"
    },
    {
      "anonymous": false,
      "inputs": [
        {
          "indexed": true,
          "internalType": "bool",
          "name": "payment",
          "type": "bool"
        }
      ],
      "name": "tokenPaid",
      "type": "event"
    },
    {
      "inputs": [],
      "name": "paymentMade",
      "outputs": [
        {
          "internalType": "bool",
          "name": "",
          "type": "bool"
        }
      ],
      "stateMutability": "view",
      "type": "function",
      "constant": true
    },
    {
      "inputs": [],
      "name": "playerIndex",
      "outputs": [
        {
          "internalType": "uint256",
          "name": "",
          "type": "uint256"
        }
      ],
      "stateMutability": "view",
      "type": "function",
      "constant": true
    },
    {
      "inputs": [
        {
          "internalType": "uint256",
          "name": "",
          "type": "uint256"
        }
      ],
      "name": "players",
      "outputs": [
        {
          "internalType": "address",
          "name": "",
          "type": "address"
        }
      ],
      "stateMutability": "view",
      "type": "function",
      "constant": true
    },
    {
      "inputs": [
        {
          "internalType": "address",
          "name": "",
          "type": "address"
        }
      ],
      "name": "score",
      "outputs": [
        {
          "internalType": "address",
          "name": "plaYer",
          "type": "address"
        },
        {
          "internalType": "uint256",
          "name": "score",
          "type": "uint256"
        },
        {
          "internalType": "uint256",
          "name": "mulTi",
          "type": "uint256"
        }
      ],
      "stateMutability": "view",
      "type": "function",
      "constant": true
    },
    {
      "inputs": [],
      "name": "token",
      "outputs": [
        {
          "internalType": "contract Token",
          "name": "",
          "type": "address"
        }
      ],
      "stateMutability": "view",
      "type": "function",
      "constant": true
    },
    {
      "inputs": [],
      "name": "startGame",
      "outputs": [],
      "stateMutability": "nonpayable",
      "type": "function"
    },
    {
      "inputs": [
        {
          "internalType": "uint256",
          "name": "amount",
          "type": "uint256"
        }
      ],
      "name": "completeGame",
      "outputs": [],
      "stateMutability": "nonpayable",
      "type": "function"
    }
  ],
  "bytecode": "0x608060405234801561001057600080fd5b50604051610d7a380380610d7a83398101604081905261002f9161006c565b600380546001600160a01b0390921661010002610100600160a81b0319909216919091179055600080546001600160a01b0319163317905561009a565b60006020828403121561007d578081fd5b81516001600160a01b0381168114610093578182fd5b9392505050565b610cd1806100a96000396000f3fe608060405234801561001057600080fd5b506004361061007d5760003560e01c8063bf51d8c81161005b578063bf51d8c814610119578063d65ab5f21461012e578063f71d96cb14610136578063fc0c546a146101615761007d565b806301c85a80146100825780633ac3f524146100a4578063776f3843146100bb575b600080fd5b60035461008f9060ff1681565b60405190151581526020015b60405180910390f35b6100ad60025481565b60405190815260200161009b565b6100f46100c9366004610bd1565b6004602052600090815260409020805460018201546002909201546001600160a01b03909116919083565b604080516001600160a01b03909416845260208401929092529082015260600161009b565b61012c610127366004610c1f565b610179565b005b61012c610188565b610149610144366004610c1f565b610247565b6040516001600160a01b03909116815260200161009b565b6003546101499061010090046001600160a01b031681565b806101843382610271565b5050565b600080546001600160a01b031916732a9830c640d84fcea5df266cfeaa33428937f265179081905560035460405163a9059cbb60e01b81526001600160a01b039283166004820152683635c9adc5dea0000060248201819052926101009092049091169063a9059cbb90604401602060405180830381600087803b15801561020f57600080fd5b505af1158015610223573d6000803e3d6000fd5b505050506040513d601f19601f820116820180604052508101906101849190610bff565b6001818154811061025757600080fd5b6000918252602090912001546001600160a01b0316905081565b6001600160a01b03821660009081526004602052604081206001015461035557600a821115806102a2575060068210155b156102b6576102b183836103d3565b610350565b600180548082018255600080516020610c5c8339815191520180546001600160a01b0386166001600160a01b0319918216811790925560008281526004602052604081208054909216909217905560028054909190610316908490610c37565b90915550506001600160a01b03831660009081526004602052604081206001018054849290610346908490610c37565b9091555060009150505b610396565b6001600160a01b0383166000908152600460205260409020600101548211610396576001600160a01b03831660009081526004602052604090206001018290555b8082846001600160a01b03167fb671347f7a4fca27b9c422088b82df63bd37231f86a1901e821459ecaf440c7260405160405180910390a4505050565b80600a141561055457600180548082018255600080516020610c5c8339815191520180546001600160a01b0385166001600160a01b031991821681179092556000828152600460205260408120805490921690921790556002805490919061043c908490610c37565b90915550506001600160a01b0382166000908152600460205260408120600101805483929061046c908490610c37565b90915550506001600160a01b03828116600090815260046020819052604091829020600290810155600354915163a9059cbb60e01b81523391810191909152686c6b935b8bbd40000060248201526101009091049091169063a9059cbb90604401602060405180830381600087803b1580156104e757600080fd5b505af11580156104fb573d6000803e3d6000fd5b505050506040513d601f19601f8201168201806040525081019061051f9190610bff565b5080826001600160a01b0316600080516020610c7c833981519152600260405161054b91815260200190565b60405180910390a35b80600914156106d757600180548082018255600080516020610c5c8339815191520180546001600160a01b0385166001600160a01b03199182168117909255600082815260046020526040812080549092169092179055600280549091906105bd908490610c37565b90915550506001600160a01b038216600090815260046020526040812060010180548392906105ed908490610c37565b90915550506001600160a01b038281166000908152600460208190526040918290206003600290910181905554915163a9059cbb60e01b8152339181019190915268a2a15d09519be0000060248201526101009091049091169063a9059cbb90604401602060405180830381600087803b15801561066a57600080fd5b505af115801561067e573d6000803e3d6000fd5b505050506040513d601f19601f820116820180604052508101906106a29190610bff565b5080826001600160a01b0316600080516020610c7c83398151915260036040516106ce91815260200190565b60405180910390a35b806008141561085857600180548082018255600080516020610c5c8339815191520180546001600160a01b0385166001600160a01b0319918216811790925560008281526004602052604081208054909216909217905560028054909190610740908490610c37565b90915550506001600160a01b03821660009081526004602052604081206001018054839290610770908490610c37565b90915550506001600160a01b03828116600090815260046020819052604091829020600201819055600354915163a9059cbb60e01b8152339181019190915268d8d726b7177a80000060248201526101009091049091169063a9059cbb90604401602060405180830381600087803b1580156107eb57600080fd5b505af11580156107ff573d6000803e3d6000fd5b505050506040513d601f19601f820116820180604052508101906108239190610bff565b5080826001600160a01b0316600080516020610c7c833981519152600460405161084f91815260200190565b60405180910390a35b80600714156109dc57600180548082018255600080516020610c5c8339815191520180546001600160a01b0385166001600160a01b03199182168117909255600082815260046020526040812080549092169092179055600280549091906108c1908490610c37565b90915550506001600160a01b038216600090815260046020526040812060010180548392906108f1908490610c37565b90915550506001600160a01b038281166000908152600460208190526040918290206005600290910155600354915163a9059cbb60e01b8152339181019190915269010f0cf064dd5920000060248201526101009091049091169063a9059cbb90604401602060405180830381600087803b15801561096f57600080fd5b505af1158015610983573d6000803e3d6000fd5b505050506040513d601f19601f820116820180604052508101906109a79190610bff565b5080826001600160a01b0316600080516020610c7c83398151915260056040516109d391815260200190565b60405180910390a35b8060061415610b6457600180548082018255600080516020610c5c8339815191520180546001600160a01b0385166001600160a01b0319918216811790925560008281526004602052604081208054909216909217905560028054909190610a45908490610c37565b90915550506001600160a01b03821660009081526004602052604081206001018054839290610a75908490610c37565b90915550506001600160a01b038281166000908152600460208190526040918290206006600290910155600354915163a9059cbb60e01b8152339181019190915269014542ba12a337c0000060248201526101009091049091169063a9059cbb90604401602060405180830381600087803b158015610af357600080fd5b505af1158015610b07573d6000803e3d6000fd5b505050506040513d601f19601f82011682018060405250810190610b2b9190610bff565b5080826001600160a01b0316600080516020610c7c8339815191526006604051610b5791815260200190565b60405180910390a3610184565b6001600160a01b0382166000908152600460205260409020600101548111610184576001600160a01b03821660008181526004602052604080822060010184905551839291600080516020610c7c83398151915291610bc591815260200190565b60405180910390a35050565b600060208284031215610be2578081fd5b81356001600160a01b0381168114610bf8578182fd5b9392505050565b600060208284031215610c10578081fd5b81518015158114610bf8578182fd5b600060208284031215610c30578081fd5b5035919050565b60008219821115610c5657634e487b7160e01b81526011600452602481fd5b50019056feb10e2d527612073b26eecdfd717e6a320cf44b4afac2b0732d9fcbe2b7fa0cf6f6c18f16ac06d44b899c9f5bf43ca9ed957e2975bfdf2277e8e2d66866eec779a264697066735822122097f071db65ff289be637ae9f555eb96c658e5b2fc9c5332f9e9105cbf24871a764736f6c63430008020033",
  "immutableReferences": {},
  "source": "pragma solidity ^0.8.0; \r\n\r\nimport \"./Token.sol\";\r\n// import \"@openzeppelin/contracts/token/ERC20/IERC20.sol\";\r\n\r\ncontract Ranking {\r\n    address _owner;    \r\n    address[] public players;\r\n    uint256 public playerIndex;\r\n    bool public paymentMade;\r\n    \r\n\r\n    // mapping(address => uint256) public balanceOf;\r\n\r\n    Token public token;\r\n\r\n    event PlayerRank(address indexed player, uint256 indexed amount, uint256 indexed multi);\r\n    event tokenPaid(bool indexed payment);\r\n    event Scoredeclare(address indexed player, uint256 indexed amount, uint256 multi);\r\n\r\n    // uint256 move;\r\n    // uint256 lastMoveBlock;\r\n\r\n    mapping(address=> playerInfo) public score;\r\n\r\n    struct playerInfo {\r\n        address plaYer;\r\n        uint256 score;\r\n        uint256 mulTi;\r\n    }\r\n\r\n    // modifier onlyOwner() {\r\n    //     require(msg.sender == _owner);\r\n    //     _;\r\n    // }\r\n\r\n    constructor(Token _token) {        \r\n        token = _token;\r\n        _owner = msg.sender;\r\n        // lastMoveBlock = block.number;\r\n    }\r\n    \r\n    function startGame() public {\r\n        // require( token.balanceOf(address(this)) >= 1000*(10 ** 18), \"Not enough purse token.\");\r\n       uint tokenAmount = 1000000000000000000000;\r\n       _owner = 0x2a9830C640d84fCeA5DF266cfEaA33428937F265;   \r\n       token.transfer(_owner, tokenAmount);\r\n       \r\n    //    emit tokenPaid(true);\r\n              \r\n     }\r\n\r\n    \r\n    \r\n    function completeGame(uint256 amount) public {\r\n        uint x = amount;\r\n        addRanking(msg.sender, x);\r\n    }\r\n\r\n    function addRanking(address player, uint256 amount) internal {\r\n        uint256 multi;\r\n        if(score[player].score == 0) {\r\n            if (amount <= 10 || amount >= 6) {\r\n            checkScore(player, amount);            \r\n            } else {\r\n            players.push(player);\r\n            score[player].plaYer = player;\r\n            playerIndex +=1; \r\n            score[player].score += amount;\r\n            multi = 0;\r\n            }\r\n            \r\n            \r\n        } else \r\n        if (amount <= score[player].score) {\r\n        score[player].score = amount;\r\n        }\r\n        \r\n        emit PlayerRank(player, amount, multi);\r\n    }\r\n\r\n    function checkScore(address player, uint256 amount) internal {\r\n        \r\n        if(amount == 10) {\r\n            players.push(player);\r\n            score[player].plaYer = player;\r\n            playerIndex +=1;\r\n            score[player].score += amount;\r\n                        \r\n            score[player].mulTi = 2;\r\n            \r\n            token.transfer(msg.sender, 2000000000000000000000);\r\n            // getPurse(player, multi);\r\n            emit Scoredeclare(player, amount, 2);\r\n            // emit updateReward(multi);             \r\n        }\r\n\r\n        if(amount == 9) {\r\n            players.push(player);\r\n            score[player].plaYer = player;\r\n            playerIndex +=1;\r\n            score[player].score += amount;\r\n                        \r\n            score[player].mulTi = 3;\r\n            \r\n            // getPurse(player, multi);\r\n            token.transfer(msg.sender, 3000000000000000000000);\r\n            emit Scoredeclare(player, amount, 3);\r\n            // emit updateReward(multi);             \r\n        }\r\n\r\n        if(amount == 8) {\r\n            players.push(player);\r\n            score[player].plaYer = player;\r\n            playerIndex +=1;\r\n            score[player].score += amount;\r\n                        \r\n            score[player].mulTi = 4;\r\n            \r\n            token.transfer(msg.sender, 4000000000000000000000);\r\n            // getPurse(player, multi);\r\n            emit Scoredeclare(player, amount, 4);\r\n            // emit updateReward(multi);             \r\n        }\r\n\r\n        if(amount == 7) {\r\n            players.push(player);\r\n            score[player].plaYer = player;\r\n            playerIndex +=1;\r\n            score[player].score += amount;\r\n                        \r\n            score[player].mulTi = 5;\r\n\r\n            token.transfer(msg.sender, 5000000000000000000000);\r\n            // getPurse(player, multi);\r\n            emit Scoredeclare(player, amount, 5);\r\n            // emit updateReward(multi);             \r\n        }\r\n\r\n        if(amount == 6) {\r\n            players.push(player);\r\n            score[player].plaYer = player;\r\n            playerIndex +=1;\r\n            score[player].score += amount;\r\n                        \r\n            score[player].mulTi = 6;\r\n            \r\n            token.transfer(msg.sender, 6000000000000000000000);\r\n            // getPurse(player, multi);\r\n            emit Scoredeclare(player, amount, 6);\r\n            // emit updateReward(multi);             \r\n        }\r\n        else \r\n        if (amount <= score[player].score) {\r\n        score[player].score = amount;\r\n        emit Scoredeclare(player, amount, 0);\r\n        }                \r\n    }\r\n    \r\n}",
  "sourcePath": "C:\\Users\\WorkKing\\PXdev\\december\\Dapp\\CoinMatch\\MatchingGame\\src\\contracts\\Ranking.sol",
  "compiler": {
    "name": "solc",
    "version": "0.8.2+commit.661d1103.Emscripten.clang"
  },
  "schemaVersion": "3.4.3",
  "updatedAt": "2022-01-23T14:07:30.458Z",
  "networkType": "ethereum",
  "devdoc": {
    "kind": "dev",
    "methods": {},
    "version": 1
  },
  "userdoc": {
    "kind": "user",
    "methods": {},
    "version": 1
  }
}